:020000040800F2
:1000000050080020E90200087D040008750400087B
:100010007904000899030008DF09000800000000C7
:10002000000000000000000000000000290200089D
:100030009D03000800000000850200084907000831
:100040000303000803030008030300080303000878
:100050000303000803030008030300080303000868
:100060000303000803030008030300080303000858
:100070000303000803030008030300080303000848
:100080000303000803030008030300080303000838
:100090000303000803030008030300080303000828
:1000A0000303000803030008030300080303000818
:1000B0000303000803030008030300080303000808
:1000C00003030008030300080303000803030008F8
:1000D00003030008C1070008030300080303000826
:1000E00003030008030300080303000803030008D8
:1000F00003030008030300080303000803030008C8
:1001000003030008030300080303000803030008B7
:1001100003030008030300080303000803030008A7
:100120000303000803030008030300080303000897
:100130000303000803030008030300080303000887
:100140000303000803030008030300080303000877
:100150000303000803030008030300080303000867
:100160000303000803030008030300080303000857
:100170000303000803030008030300080303000847
:10018000030300080303000800F002F800F03CF845
:100190000AA090E8000C82448344AAF10107DA45E2
:1001A00001D100F031F8AFF2090EBAE80F0013F0F8
:1001B000010F18BFFB1A43F001031847100C000091
:1001C000300C0000103A24BF78C878C1FAD8520722
:1001D00024BF30C830C144BF04680C6070470000C1
:1001E0000023002400250026103A28BF78C1FBD840
:1001F000520728BF30C148BF0B6070471FB500F0E1
:10020000DFFD1FBD10B510BD00F093F81146FFF7DC
:10021000F5FF00F00BFC00F0B1F803B4FFF7F2FFBC
:1002200003BC00F0DEFB00002C4B19680868B0E846
:10023000F04F80F30988BFF36F8F4FF0000080F319
:10024000118870470000000008480068006880F3CB
:1002500008884FF0000080F3148862B661B6BFF3DF
:100260004F8FBFF36F8F00DF00BF00BF08ED00E0CE
:10027000DFF80C00016841F470010160704700BFB5
:1002800088ED00E0EFF30980BFF36F8F134B1A681E
:100290001EF0100F08BF20ED108A20E9F04F10600B
:1002A00009B44FF0500080F31188BFF34F8FBFF3B4
:1002B0006F8F00F037FC4FF0000080F3118809BC0D
:1002C00019680868B0E8F04F1EF0100F08BFB0ECD6
:1002D000108A80F30988BFF36F8F70471C000020DD
:1002E000EFF3058070470000094880470948004740
:1002F000FEE7FEE7FEE7FEE7FEE7FEE7FEE7FEE7D6
:10030000FEE7FEE704480549054A064B7047000032
:1003100059070008890100085002002050080020F9
:100320005004002050040020704770477047704709
:100330007047754600F02CF8AE46050069465346F6
:1003400020F00700854618B020B5FFF7DBFFBDE8B9
:1003500020404FF000064FF000074FF000084FF02C
:10036000000B21F00701AC46ACE8C009ACE8C009BD
:10037000ACE8C009ACE8C0098D46704710B504462A
:10038000AFF300802046BDE81040FFF746BF0000F5
:1003900000487047EC01002000BFFEE77047F0B551
:1003A0000A4600210023002400BF3DE0012505FA94
:1003B00001F3156805EA03049C4234D105684F0037
:1003C0000326BE40B543056015794E00B54006686A
:1003D000354305601579012D02D01579022D16D10E
:1003E00085684F000326BE40B543856055794E00B1
:1003F000B540866835438560456801268E40B54323
:100400004560456896798E40B6B235434560C5680B
:100410004F000326BE40B543C560D5794E00B540B8
:10042000C6683543C560491C1029BFD3F0BDF0B57F
:10043000002300244D07ED0E02FA05F3CE1000F163
:10044000200555F826504E07F70E0F26BE40B5433F
:10045000CF1000F1200646F82750CE1000F12005FD
:1004600055F8265045EA0304CE1000F1200545F862
:100470002640F0BD00BFFEE700BFFEE7704700006A
:1004800070B5002100230F22C4781CB3174C2468D8
:1004900004F4E064C4F5E064C4F30721C1F104048A
:1004A000E3B20A4144789C40E1B28478144021438D
:1004B0000C07210E0E4C05786155047804F01F05D9
:1004C0000124AC4005786D11AD0005F1E025C5F8BB
:1004D000004109E0047804F01F050124AC40054DFB
:1004E0000678761145F8264070BD00000CED00E05E
:1004F00000E400E080E100E002490143024A1160AB
:10050000704700000000FA050CED00E029B1064A32
:1005100012680243044B1A6004E0034A12688243E3
:10052000014B1A60704700003038024029B1064A7A
:1005300012680243044B1A6004E0034A12688243C3
:10054000014B1A607047000044380240F0B50021AA
:1005500000220024022500260223324F3F6807F0C4
:100560000C0121B1042905D0082937D105E02E4F0F
:10057000076036E02D4F076033E02A4F3F1F3F688A
:10058000C7F38056274F3F1F3F6807F03F036EB108
:10059000264FB7FBF3F7DFF88CC0ACF1040CDCF8A6
:1005A00000C0CCF3881C07FB0CF40CE01E4FB7FB1B
:1005B000F3F7DFF870C0ACF1040CDCF800C0CCF34A
:1005C000881C07FB0CF4174F3F1F3F68C7F3014718
:1005D0007F1C7D00B4FBF5F7076002E0124F076057
:1005E00000BF00BF0F4F3F6807F0F0010909104F2F
:1005F0007A5C0768D74047600A4F3F6807F4E051CC
:10060000890A0B4F7A5C4768D7408760054F3F687F
:1006100007F46041490B064F7A5C4768D740C760D2
:10062000F0BD0000083802400024F40000127A00F7
:100630000A0000200CB500200190009034480068AA
:1006400040F480303249086000BF3148006800F44F
:10065000003000900198401C0190009818B9019852
:10066000B0F5A04FF1D12A48006800F4003010B175
:100670000120009001E0002000900098012846D160
:1006800023484030006840F08050214940310860E4
:100690002048006840F440401E4908601C4808306B
:1006A00000681B49083108600846006840F40040B3
:1006B00008600846006840F4A05008601648091F0A
:1006C0000860081F006840F08070091F086000BFC4
:1006D0000F48006800F000700028F9D040F2057063
:1006E0000E4908600A480830006820F003000849F5
:1006F000083108600846006840F00200086000BF4A
:1007000003480830006800F00C000828F8D10CBD40
:10071000003802400070004008544007003C02408E
:10072000042808D14FF0E021096941F004014FF09D
:10073000E022116107E04FF0E021096921F0040196
:100740004FF0E0221161704710B500F04BFA01281C
:1007500001D000F02DFA10BD10B51548006840F426
:100760007000134908601348006840F00100114907
:10077000086000200F49083108600E4800680E49E3
:1007800008400C4908600D48091D0860081F0068F2
:1007900020F48020091F0860002006490C31086001
:1007A000FFF748FF4FF0006001498039086010BD35
:1007B00088ED00E000380240FFFFF6FE1030002414
:1007C00010B540F225511D4800F04AF810B31B48FF
:1007D00000F000F9C4B21A48008800F40040C8B91B
:1007E0001748008800F4804060B10A2C03D0002034
:1007F0001349088020E01248008840F40040104966
:10080000088019E00D2C06D10D48008840F4804086
:100810000B49088010E00A480088C0F30D00094920
:100820000C5407480088401C054908800846008889
:10083000C72801DD0020088010BD00000010014025
:10084000080000205C00002021B1828942F400529F
:10085000828104E082894DF6FF731A4082817047DD
:1008600070B50246002400230025002040F66A16D9
:10087000B14200D100BFC1F3421501F01F030126B0
:1008800006FA03F3012D02D19689334006E0022DCA
:1008900002D1168A334001E0968A33400C120126B9
:1008A00006FA04F41688344013B10CB1012000E0BC
:1008B000002070BDF0B5034600240026002500206E
:1008C00040F66A17B94200D100BF1846C1F342147E
:1008D00001F01F06012707FA06F5012C01D10C30A3
:1008E00004E0022C01D1103000E014301AB1076886
:1008F0002F43076002E00768AF430760F0BD0000C8
:100900002DE9FF4705460E460024A14600BFA0463C
:10091000B08900B100BF2C8A24F44054F08804430D
:100920002C82AC8941F20C608443B0883189084341
:10093000718908430443AC81AC8A24F44074B089C3
:100940000443AC826846FFF701FE2048854202D08E
:100950001F48854202D1DDF80C9001E0DDF80890D7
:10096000A88900F4004040B109EBC90000EB091070
:1009700031684900B0FBF1F707E009EBC90000EB73
:10098000091031688900B0FBF1F76420B7FBF0F083
:1009900004012009642101FB1078A88900F40040BB
:1009A00040B1322000EBC800B0FBF1F000F00700CE
:1009B000044308E0322000EB08106421B0FBF1F0A2
:1009C00000F00F0004432C81BDE8FF8700100140B8
:1009D0000014014001468888C0F30800704700BF3A
:1009E000FEE700BF7047000070B504460420FFF723
:1009F00097FE0C48047025464FF47A704543012059
:100A0000094908804FF0E020006940F002004FF0F3
:100A1000E021086108464561006940F00100086175
:100A200070BD0000000000200200002010B54FF44F
:100A30004070FFF761FDA820FFF7D6FF4FF4E130CB
:100A400000F01AF8002010BD09480068006808B9D5
:100A5000012000E0002020B14FF0FF300549086080
:100A600005E003480068C0680068024908607047F4
:100A7000200000204C00002010B588B00446012161
:100A80000846FFF743FD01211020FFF74FFD072225
:100A900009212248FFF7CBFC07220A211F48FFF754
:100AA000C6FC4FF4C060069002208DF81C008DF843
:100AB0001D0000208DF81E0001208DF81F0006A9E2
:100AC0001648FFF76CFC02940020ADF80C00ADF85E
:100AD0000E00ADF81000ADF814000C20ADF81200B7
:100AE00002A90F48FFF70CFF01210D48FFF7ACFEEC
:100AF000012240F225510A48FFF7DCFE25208DF83F
:100B0000040003208DF805008DF8060001208DF803
:100B1000070001A8FFF7B4FC08B010BD00000240B8
:100B2000001001401D48006818B101201C490860F0
:100B300032E000201A4908601A480068B0FA80F0D4
:100B4000C0F11F0101EB8100174A52F8200008B1E3
:100B5000012000E0002050B900BF502080F3118830
:100B6000BFF34F8FBFF36F8F00BF00BFFEE701EBF6
:100B700081020D4B03EB820042685268426000F133
:100B800008024368934202D1426852684260426858
:100B9000D268064B1A6000BF704700005800002062
:100BA0004000002034000020240100201C00002010
:100BB00010B500BF502080F31188BFF34F8FBFF3F3
:100BC0006F8F00BF00F01EF818B14FF0805004493D
:100BD000086000BF002080F3118800BF10BD000036
:100BE00004ED00E00549096809B9012005E0044960
:100BF000096809B9022000E0002070473800002091
:100C0000580000202DE9F0414FF0000861480068CD
:100C100000287DD160480068451C5F48056015BB11
:100C20005E480068006808B9012000E0002050B963
:100C300000BF502080F31188BFF34F8FBFF36F8F39
:100C400000BF00BFFEE75548076855480068534994
:100C500008605348076053480068401C51490860C9
:100C6000FFF7F2FE00BF50480068854277D300BF0F
:100C70004A480068006808B9012000E0002020B15F
:100C80004FF0FF304849086068E044480068C06899
:100C9000C4686668B54202D2434806605EE0606997
:100CA000D4E902128A60D4E902214A60211D426817
:100CB0008A4201D1E1684160002262610168491EF7
:100CC0000160A06A98B1A06AD4E907128A60D4E9E9
:100CD00007214A6004F1180142688A4201D1216A61
:100CE00041600022A2620168491E016000BF94F8C1
:100CF0002C10012088402D49096808432B490860C1
:100D0000E16A01EB81012A4A02EB8101486800E0B7
:100D100037E0A0608268E260211D826851608160D6
:100D2000E16A01EB8101224A02EB81026261E16A20
:100D300001EB81011E4A52F82110491CE26A02EBC4
:100D400082021B4B43F822101A49E06A0968C96AFB
:100D500088428DD94FF001088AE700E000BF1548AE
:100D60000068C06A00EB8000114951F8200001289A
:100D700001D94FF001081048006808B14FF0010890
:100D800004E00E480068401C0C4908604046BDE87D
:100D9000F0810000580000203000002020000020DA
:100DA00024000020440000204C00002034000020DB
:100DB000240100201C000020400000203C000020F6
:100DC0004FF04070E1EE100A70470000EC0D000893
:100DD000000000205C000000C4010008480E00086C
:100DE0005C000020F4070000E001000800000000A3
:100DF00000000000000000000000010203040102E6
:100E000003040607080900000000000000000000BD
:100E100000000000000000000000000000000000D2
:100E200000000000000000000000000000000000C2
:100E300000000000000000000000000000000000B2
:080E40000400000000000000A6
:040000050800018965
:00000001FF
