:020000040800F2
:10000000183501200103000811160008C915000861
:100010000D160008E9140008731B0008000000001A
:100020000000000000000000000000004102000885
:10003000ED140008000000009D020008DD18000813
:100040001B0300081B0300081B0300081B03000818
:100050001B0300081B0300081B0300081B03000808
:100060001B0300081B0300081B0300081B030008F8
:100070001B0300081B0300081B0300081B030008E8
:100080001B0300081B0300081B0300081B030008D8
:100090001B0300081B0300081B0300081B030008C8
:1000A0001B0300081B0300081B0300081B030008B8
:1000B0001B0300081B0300081B0300081B030008A8
:1000C0001B0300081B0300081B0300081B03000898
:1000D0001B030008551900081B0300081B03000838
:1000E0001B0300081B0300081B0300081B03000878
:1000F0001B0300081B0300081B0300081B03000868
:100100001B0300081B0300081B0300081B03000857
:100110001B0300081B0300081B0300081B03000847
:100120001B0300081B0300081B0300081B03000837
:100130001B0300081B0300081B0300081B03000827
:100140001B0300081B0300081B0300081B03000817
:100150001B0300081B0300081B0300081B03000807
:100160001B0300081B0300081B0300081B030008F7
:100170001B0300081B0300081B0300081B030008E7
:100180001B0300081B03000800F002F800F049F808
:100190000AA090E8000C82448344AAF10107DA45E2
:1001A00001D100F03EF8AFF2090EBAE80F0013F0EB
:1001B000010F18BFFB1A43F0010318478C380000E9
:1001C000AC380000103A24BF78C878C1FAD852077A
:1001D00024BF30C830C144BF04680C6070470000C1
:1001E0000023002400250026103A28BF78C1FBD840
:1001F000520728BF30C148BF0B607047662903F023
:10020000D783002070471FB503F0CDFB00F01AFC28
:1002100004000020002103F039FBE0601FBD10B591
:1002200010BD00F02BFD1146FFF7EDFF01F044FD7E
:1002300000F049FD03B4FFF7F2FF03BC01F0BAFC84
:100240002C4B19680868B0E8F04F80F30988BFF3B9
:100250006F8F4FF0000080F311887047000000009E
:1002600008480068006880F308884FF0000080F3B9
:10027000148862B661B6BFF34F8FBFF36F8F00DF94
:1002800000BF00BF08ED00E0DFF80C00016841F49A
:1002900070010160704700BF88ED00E0EFF3098056
:1002A000BFF36F8F134B1A681EF0100F08BF20EDBD
:1002B000108A20E9F04F106009B44FF0500080F32D
:1002C0001188BFF34F8FBFF36F8F02F08DFD4FF09A
:1002D000000080F3118809BC19680868B0E8F04F85
:1002E0001EF0100F08BFB0EC108A80F30988BFF32E
:1002F0006F8F70476C000020EFF30580704700009F
:100300000948804709480047FEE7FEE7FEE7FEE7A9
:10031000FEE7FEE7FEE7FEE7FEE7FEE704480549E5
:10032000054A064B70470000ED18000889010008D7
:10033000182F012018350120183101201831012013
:10034000704700000FB4044910B503AA029800F0EA
:1003500035FB10BC5DF814FB2C0000202DE9F047A4
:100360004FF0000A89460446C0F820A02046E16804
:100370008847002876D0252806D0D4E90121904767
:10038000206A401C2062F1E7E1682046002588478A
:10039000C4F81CA006460027C4F818A02A2E09D0CD
:1003A000304601F000FC38B304EB8708303EC8F853
:1003B000186019E059F8041B204604EB870291618C
:1003C000E1688847012F064618D1E069002820DA45
:1003D00025F020051DE0D8F8180000EB800006EBA2
:1003E00040003038C8F818002046E16888470646C3
:1003F00001F0D9FB0028EED1012F0AD02E2E08D112
:100400002046E16888477F1C0646022F45F02005FC
:10041000C4DBA069002803DA404245F00105A06171
:10042000E80701D025F01005B6B1A6F14100192862
:1004300002D8203645F400654A46314620462560FC
:100440004D46FFF7DBFE58B1012806D0ED1D25F023
:10045000070000F1080989E704E005F1040985E7D0
:1004600030468AE7206ABDE8F087032A40F23080F0
:1004700010F0030C00F0158011F8013BBCF1020FE5
:10048000624498BF11F801CB00F8013B38BF11F866
:10049000013BA2F1040298BF00F801CB38BF00F87D
:1004A000013B11F0030300F09B82083AC0F0088082
:1004B00051F8043B083A51F804CBA0E80810F5E7DE
:1004C000121D5CBF51F8043B40F8043BAFF30080C1
:1004D000D20724BF11F8013B11F801CB48BF11F836
:1004E000012B24BF00F8013B00F801CB48BF00F806
:1004F000012B704702F0FF0343EA032242EA024263
:1005000000F002B84FF000020429C0F0128010F091
:10051000030C00F01B80CCF1040CBCF1020F18BFDF
:1005200000F8012BA8BF20F8022BA1EB0C0100F072
:100530000DB85FEAC17C24BF00F8012B00F8012B45
:1005400048BF00F8012B70474FF0000200B513467A
:1005500094469646203922BFA0E80C50A0E80C50E3
:10056000B1F12001BFF4F7AF090728BFA0E80C5094
:1005700048BF0CC05DF804EB890028BF40F8042B8D
:1005800008BF704748BF20F8022B11F0804F18BFFA
:1005900000F8012B704770477047704770477047ED
:1005A0002DE9FF4F0C461E464FF0FF378BB0D2E9C6
:1005B0000001DDF860800A908A46C1F30A5505B94A
:1005C0003D46002108464FF00000BAF1000F00F44C
:1005D000400005DA00EB80004FF4400101EA5000D2
:1005E0004FEA9059B9F1010F00DDB9460A9850EA77
:1005F0004A000ED044F61050A5F2FF3545432F14A3
:10060000B8F1000F1ED07542291E1EDDC9F100028F
:100610001CE0B8F1010F4FF0000001D0302103E0E1
:10062000F24305E02154401CB042FBDB304600227F
:10063000002121540B99C1F80880C1E900200FB0B6
:10064000BDE8F08FBD1B6D1CDEE74A4600DA69424B
:1006500006A800F099FA06AB93E8070003AB83E81D
:10066000070050460A9900F077FB8DE80700A0F5D7
:1006700000501F3800900398002D0ADD42F21F0140
:100680004A460844002303A90390684600F0E0FDB1
:1006900009E0A0F500504A461F38002303A9039043
:1006A000684600F0EAFD8DE807000004000C03D066
:1006B0004FF0FF30410800E01046B8F1000F03D0C2
:1006C0000022009215461EE0751E05D400F0BEF90A
:1006D000303262556D1EF9D5B3460122084302D06F
:1006E00000227F1C04E02078302801D100227F1EE8
:1006F000002A099784D01DE0112D07DA00F0A6F931
:10070000303262556D1C50EA0102F5D1084302D027
:100710000098C8B10EE00021681E05E0235C625C11
:1007200063542254401E491C8142F7DBAB46A81B90
:10073000401E0990002004F80B000B98099AC0F89D
:100740000880C0E9002B7AE711264FF0000857E730
:100750002DE9F04F88460446D21D22F0070191B0E2
:10076000D1E90001CDE90A0101F005FA02460B9832
:10077000C00F01D02D2007E02068810701D52B2074
:1007800002E0202101EAC000032A099001D0072AD3
:1007900005DB03464146204600F0B6F90BE1207820
:1007A000800601D5E06900E00620B8F1650F8146BA
:1007B00006D0B8F1660F18D0B8F1670F70D131E0EC
:1007C0000020B9F1110F009001DB112301E009F1C4
:1007D00001030AAA01A90CA8FFF7E2FEDDE90C70EB
:1007E000002609F10105834647E001204B460090B1
:1007F0004FF000470AAA01A90CA8FFF7D1FEDDE9D6
:100800000DB00C995D46002610B909F101000D18D4
:10081000B9EB050003D4C0F1FF3609F10105A5EBE2
:1008200009002BE0B9F1010F01DA4FF001090020B6
:10083000B9F1110F0090484601DD112300E0034695
:100840000AAA01A90CA8FFF7ABFEDDE90C704D4622
:1008500000268346207800070AD4AB4500DA5D46BF
:1008600001A8012D04DD411911F8011C302907D020
:100870004F4502DA17F1040F04DA012082460FE037
:100880006D1EEEE7002F02DCED1B3E4403E0781CFA
:10089000A84200DD7D1CB81B00F1010A4FF00047A3
:1008A0002078000703D4AA4501DB4FF0FF3A00216E
:1008B000B7F1004F0DF143088DF8431024D002200A
:1008C0002B23002F01DA7F422D230A21021EA0F1E3
:1008D000010000DC5FB197FBF1FC97FBF1F201FB3B
:1008E0001C7C17460CF1300C08F801CDEEE7A8F19E
:1008F000010003702188090501D5452100E065212B
:10090000A0F1010800F8011C09980FA9A1EB080744
:10091000FF1D00B10120411901EBEA70A1693844C3
:10092000081A401EA0612078C00602D42046AFF30A
:100930000080099828B1D4E901219047206A401C21
:1009400020622078C00622D52046AFF300801EE04A
:10095000002E04DBB34502DD01A8805D00E03020FD
:10096000D4E901219047206A401C2062761CAAF13C
:1009700001005FEA000A0AD100F064F8C06801686B
:10098000405CD4E901219047206A401C2062281E67
:10099000A5F10105DCDC07E0D4E9012118F8010B21
:1009A0009047206A401C2062381EA7F10107F3DC43
:1009B0002046AFF30080032011B041E6074B70B52D
:1009C0000D467B4400F08DF80446284600F04EF9B1
:1009D00010B14FF0FF3070BD204670BD8F12000087
:1009E00010B5203AC0F00B80B1E81850203AA0E8CA
:1009F0001850B1E81850A0E81850BFF4F5AF5FEAFE
:100A0000027C24BFB1E81850A0E8185044BF18C9B0
:100A100018C0BDE810405FEA827C24BF51F8043B57
:100A200040F8043B08BF7047D20728BF31F8023BAB
:100A300048BF11F8012B28BF20F8023B48BF00F83F
:100A4000012B704700487047D82E012030B5B0F117
:100A50000A024FEA900E71F100034EEA817EB0EB7C
:100A60000E0061EB91014FEA101E4EEA017E10EB81
:100A70000E0041EB11114FEA102E4EEA016E10EB01
:100A80000E0041EB11214FEA104E4EEA014E10EBE1
:100A90000E0041EB1141401841F100014FEAD00036
:100AA00040EA41704FEAD10110EB80054FEA810422
:100AB00044EA907444EB01046D1944EB0404521BA6
:100AC000A3414FF0000348BF0A3200D530BD401C9F
:100AD00041F1000130BD000001694A1C0261087843
:100AE000704700B58FB0CDE901310021059105496E
:100AF0007944CDE9031011466846FFF72FFC0FB08B
:100B000000BD0000E5FFFFFF2DE9F0411F46044650
:100B100003260168072A01F4006004DB08B116A56A
:100B200005E016A503E008B115A500E015A521F024
:100B300010002060A069C01EA0610FB1401EA0611E
:100B40002046AFF300804FB1D4E9012138469047E9
:100B5000206A401C2062C01C206206E0206AFAE77E
:100B6000D4E9012115F8010B9047761EF8D22046F2
:100B7000AFF30080BDE8F0814E414E006E616E0023
:100B8000494E4600696E66002DE9F04781461646DB
:100B90008AB0354878440DC88DE80D003248784455
:100BA000801C03AC0DC884E80D0041F69B3008445E
:100BB000372190FBF1F290FBF1F5A5F1800501FBE7
:100BC00012041B3C02D56442012000E00020DFF843
:100BD00098A080460027FA44AAF1BE0A0EE0E0077A
:100BE0000AD03246684607EB470101230AEB810130
:100BF00000F043FB8DE8070064107F1C002CEED151
:100C0000194F7F44AE3F19E0E80715D007EB0410F9
:100C10000DF1180A90E80E008AE80E00C068F04254
:100C200001D1981908903246012306A903A800F0C3
:100C300024FB03AB83E807006D10641C002DE3D197
:100C40004FF0010332466946B8F1000F03A802D005
:100C500000F0FEFA01E000F010FBC9E90001C9F85C
:100C600008200AB0BDE8F087982E0000007B00F055
:100C70008000704700487047B82E01207546FFF786
:100C8000F9FFAE4605006946534620F00700854649
:100C900018B020B5FFF742FBBDE820404FF000063A
:100CA0004FF000074FF000084FF0000B21F0070154
:100CB000AC46ACE8C009ACE8C009ACE8C009ACE897
:100CC000C0098D46704710B50446AFF3008020463A
:100CD000BDE81040FFF7AEBA4FF0013C50F8042BCE
:100CE00051F8043B9A4221D1A2EB0C03934313EA3F
:100CF000CC1317D150F8042B51F8043B9A4215D16C
:100D0000A2EB0C03934313EACC130BD150F8042B42
:100D100051F8043B9A4209D1A2EB0C03934313EA26
:100D2000CC13DBD04FF00000704700BFD01A01BADF
:100D3000B1FA81F101F0180122FA01F0CB40C1F1C2
:100D40002001DBB2C0B2C01A2CFA01F3D11A9143D0
:100D500011EAC311E6D170475FEA400C08BF91F079
:100D6000000F4FEA8C234FEAC12243EA51514FEA68
:100D70001C5018BF00F5F0404FEA300018BF41F09A
:100D800000415FEA6C5C00F02980BCF1FF3F08BFC6
:100D900040F080407047130C06BF12044FF0100C57
:100DA0004FF0000C130E04BF12020CF1080C130FCD
:100DB00004BF12010CF1040C930F04BF92000CF15C
:100DC000020CD30F04BF52000CF1010C11464FF07E
:100DD0000002A0F11F00A0EB0C00704711F0004FC3
:100DE00008BF704731F000413FF4D5AF0B0C06BF90
:100DF00009044FF0100C4FF0000C0B0E04BF090259
:100E00000CF1080C0B0F04BF09010CF1040C8B0F43
:100E100004BF89000CF1020CCB0F04BF49000CF198
:100E2000010CCCF12003A0EB0C0022FA03F302FA30
:100E30000CF241EA030100F10100704720F07F4C01
:100E400080EA030023F07F47ACEB070303F57C53F4
:100E500000F0004003F1FF032DE980494FEA154BF4
:100E600009B44FEA144325EA0B4E24EA03480FF273
:100E7000042606EB132749083E785FEA320203FB9B
:100E80000667C7F5000707FB06F64FEA54374FEA37
:100E9000D64606F1020607FB066CCCF1005C4FEA71
:100EA0001C472CEA074C07FB06F40CFB06F504EB89
:100EB00015464FEA961634BF00204FF000404FEA27
:100EC000D13706FB07FC4FEA1C4C0CFB0BF7D21B7F
:100ED00003FB0CF761EB07010CFB0EF7B0EB0740CF
:100EE00072EB17420CFB08F734BFA2EB0742B2EBE0
:100EF000074261EB17414FEA0C444FEA910706FBAA
:100F000007FC4FEA1C4C0CFB0BF7B0EBC74072EB35
:100F1000573203FB0CF734BFA2EBC742B2EBC74218
:100F200061EB57310CFB0EF7B0EBC70072EB577259
:100F30000CFB08F734BFA2EBC702B2EBC70261EBB0
:100F40005771039F4FEA816141EA921104EBCC048F
:100F50004FEAD1374FEA826206FB07FC42EA901261
:100F60004FEA80604FEA1C4C0CFB0BF7D21B03FBD3
:100F70000CF761EB07010CFB0EF7B0EB074072EBCF
:100F800017420CFB08F734BFA2EB0742B2EB074253
:100F900061EB17414FEA8C554FEA910704EB9C2413
:100FA00006FB07FC4FEA1C4C0CFB0BF7B0EBC740F1
:100FB00072EB573203FB0CF734BFA2EBC742B2EB24
:100FC000C74261EB57310CFB0EF7B0EBC70072EB79
:100FD00057720CFB08F734BFA2EBC702B2EBC70293
:100FE00061EB577115EB4C254FEA816141EA921193
:100FF0004FEA82624FEAD13742EA901206FB07FCC1
:1010000044F100044FEA80604FEA1C4C0CFB0BF7E4
:10101000D21B03FB0CF761EB07010CFB0EF7B0EBE7
:10102000074072EB17420CFB08F734BFA2EB0742F4
:10103000B2EB074261EB174115EB1C154FEA81310A
:1010400041EA92414FEA823242EA90424FEA8030CE
:101050004FEA0C7644F1000448EA03434EEA0B4899
:101060004FF0000EB2EB080C71EB030724BF624691
:1010700039464EEB0E0E4FF0000B0018524149411D
:101080004BEB0B0BB2EB080C71EB03077BF1000B86
:1010900024BF624639464EEB0E0E4FF0000B00188F
:1010A000524149414BEB0B0BB2EB080C71EB0307C0
:1010B0007BF1000B24BF624639464EEB0E0E51EA1F
:1010C000020718BF46F0010616EB0E7655F1000236
:1010D00054F1000103D5BDE88901BDE80088BDE8F1
:1010E0008901BDE80048B619524141EB0101A3F165
:1010F0000103704780807F7E7D7C7B7A797877766C
:1011000076757473727171706F6E6E6D6C6C6B6AE4
:101110006A69686867666665646463636261616082
:10112000605F5F5E5E5D5D5C5C5B5B5A5A595958FF
:101130005857575656555555545453535252525169
:10114000515050504F4F4F4E4E4D4D4D4C4C4C4BBF
:101150004B4B4A4A4A494949484848474747474606
:101160004646454545444444444343434342424242
:1011700042414141002B9C4630D477002BD01CB516
:101180004FEA370703B44FF010004FF01001BAF1E7
:10119000000F06D0BCF1000FDCBF40F0080040F0AB
:1011A00008014FF000000FBCBDE810400BF1010B2F
:1011B000BBF1010F08BF5FEA170722BF12F101025E
:1011C00011F101014FF0004143F1000300F0004034
:1011D00043EA00007047F9D35708D0E746EA0646CD
:1011E00013F1400F4FEA16461FDD13F1200FDFBF4A
:1011F00016430A46002120335B42BED0C3F12007CC
:1012000046EA064602FA07F74FEA164646EA070696
:10121000C3F1200722FA03F201FA07F721FA03F1DA
:101220004FF0000342EA0702A7E746EA020646EA51
:1012300006464FEA164646EA0106BCBF46EA06469F
:10124000360C4FF000034FF000024FF0000194E71E
:101250002DE9804C9A46934670B491E8380007C84F
:1012600031EA400C48BF34EA430C03D5FFF7E6FDF2
:10127000FFF780FFF0BCBDE8008C2DE9804C9A465A
:10128000934670B491E8380007C810F0804F08BF4B
:1012900013F0804F03D100F005F8FFF76BFFF0BCAF
:1012A000BDE8008C20F07F4780EA030023F07F4CEC
:1012B00007EB0C03A3F57C5300F00040A3F1FE0301
:1012C00092F0000F00F0B38095F0000F00F07780EF
:1012D0002DE901494FEA11404FEA144621EA00483E
:1012E00000FB06FC24EA064708FB06F607FB08F8A5
:1012F00000FB07F718EB06484CEB164C4FEA124B75
:1013000018EB07484FEA15464CEB174022EA0B4E04
:101310000BFB06FC25EA06470EFB06F607FB0EFE56
:101320000BFB07F71EEB064E4CEB164C4FF000067E
:101330001EEB074E4CEB174B18EB0B0840F100006F
:1013400018EB0E0B58EB000840F100008F1A4FF01D
:1013500000013CBFC943661B14BFB5EB040C002160
:101360003CBFC943F61B4FEA17444EEA8E0E27EAEC
:1013700004454FEA1C4704FB07622CEA074C05FBB7
:1013800007F70CFB05F604FB0CFC16EB074642EBDB
:10139000174216EB0C4642EB1C421BEB060658EBC1
:1013A0000202414146EA9E0601D5BDE80189B6190F
:1013B000524141EB0101A3F10103BDE801894FEA6C
:1013C00014454FEA114724EA054621EA074C05FB7C
:1013D00007F406FB07F70CFB06F105FB0CFC11EB11
:1013E000074144EB17444FEA124711EB0C4144EB21
:1013F0001C4422EA074C05FB07F206FB07F70CFB2F
:1014000006F605FB0CFC16EB074642EB174216EB03
:101410000C4642EB1C456A1854F1000148BF704766
:10142000B619524141EB0101A3F10103704795F058
:10143000000F37D04FEA11424FEA144721EA024623
:1014400024EA074C02FB07F106FB07F70CFB06F446
:1014500002FB0CFC14EB074441EB17414FEA154724
:1014600014EB0C4441EB1C4125EA074C02FB07F549
:1014700006FB07F70CFB06F602FB0CFC16EB074617
:1014800045EB174516EB0C4645EB1C42121951F182
:10149000000148BF7047B619524141EB0101A3F169
:1014A000010370474FEA14454FEA114724EA054605
:1014B00021EA074C05FB07F106FB07F70CFB06F2D8
:1014C0004FF0000605FB0CFC12EB074241EB174105
:1014D00012EB0C4251EB1C4148BF7047921841EB94
:1014E0000101A3F10103704700BFFEE77047F0B5AB
:1014F0000A4600210023002400BF3DE0012505FA33
:1015000001F3156805EA03049C4234D105684F00D5
:101510000326BE40B543056015794E00B540066808
:10152000354305601579012D02D01579022D16D1AC
:1015300085684F000326BE40B543856055794E004F
:10154000B540866835438560456801268E40B543C1
:101550004560456896798E40B6B235434560C568AA
:101560004F000326BE40B543C560D5794E00B54057
:10157000C6683543C560491C1029BFD3F0BDF0B51E
:10158000002300244D07ED0E02FA05F3CE1000F102
:10159000200555F826504E07F70E0F26BE40B543DE
:1015A000CF1000F1200646F82750CE1000F120059C
:1015B00055F8265045EA0304CE1000F1200545F801
:1015C0002640F0BD0183704700BFFEE71CB5012136
:1015D000202000F065F84FF4C060009001208DF8E5
:1015E000040000208DF8060003208DF8050001207E
:1015F0008DF8070069460448FFF779FF4FF4C06192
:101600000148FFF7DFFF1CBD0014024000BFFEE7EA
:101610007047000070B5002100230F22C4781CB36E
:10162000174C246804F4E064C4F5E064C4F30721B3
:10163000C1F10404E3B20A4144789C40E1B28478E9
:10164000144021430C07210E0E4C05786155047897
:1016500004F01F050124AC4005786D11AD0005F1C3
:10166000E025C5F8004109E0047804F01F050124D5
:10167000AC40054D0678761145F8264070BD000057
:101680000CED00E000E400E080E100E002490143ED
:10169000024A1160704700000000FA050CED00E0FE
:1016A00029B1064A12680243044B1A6004E0034A57
:1016B00012688243014B1A607047000030380240C4
:1016C00029B1064A12680243044B1A6004E0034A37
:1016D00012688243014B1A60704700004438024090
:1016E000F0B5002100220024022500260223324FFB
:1016F0003F6807F00C0121B1042905D0082937D132
:1017000005E02E4F076036E02D4F076033E02A4F8B
:101710003F1F3F68C7F38056274F3F1F3F6807F0C2
:101720003F036EB1264FB7FBF3F7DFF88CC0ACF187
:10173000040CDCF800C0CCF3881C07FB0CF40CE0B4
:101740001E4FB7FBF3F7DFF870C0ACF1040CDCF808
:1017500000C0CCF3881C07FB0CF4174F3F1F3F68F9
:10176000C7F301477F1C7D00B4FBF5F7076002E07B
:10177000124F076000BF00BF0F4F3F6807F0F00136
:101780000909104F7A5C0768D74047600A4F3F68E5
:1017900007F4E051890A0B4F7A5C4768D7408760AD
:1017A000054F3F6807F46041490B064F7A5C476874
:1017B000D740C760F0BD0000083802400024F400A4
:1017C00000127A00320000200CB500200190009039
:1017D0003448006840F480303249086000BF314826
:1017E000006800F4003000900198401C01900098BF
:1017F00018B90198B0F5A04FF1D12A48006800F45B
:10180000003010B10120009001E00020009000980D
:10181000012846D123484030006840F080502149DB
:10182000403108602048006840F440401E4908608C
:101830001C48083000681B490831086008460068E9
:1018400040F4004008600846006840F4A05008607A
:101850001648091F0860081F006840F08070091FC3
:10186000086000BF0F48006800F000700028F9D041
:1018700040F205700E4908600A480830006820F000
:1018800003000849083108600846006840F002007B
:10189000086000BF03480830006800F00C0008280A
:1018A000F8D10CBD003802400070004008544007D9
:1018B000003C0240042808D14FF0E021096941F0C2
:1018C00004014FF0E022116107E04FF0E0210969C7
:1018D00021F004014FF0E0221161704710B501F0D2
:1018E00069FD012801D001F079FB10BD10B5154844
:1018F000006840F47000134908601348006840F025
:1019000001001149086000200F49083108600E48A5
:1019100000680E4908400C4908600D48091D086020
:10192000081F006820F48020091F08600020064975
:101930000C310860FFF748FF4FF000600149803923
:10194000086010BD88ED00E000380240FFFFF6FEA1
:101950001030002410B540F225511D4800F04AF81F
:1019600010B31B4800F000F9C4B21A48008800F414
:101970000040C8B91748008800F4804060B10A2CC4
:1019800003D000201349088020E01248008840F46A
:1019900000401049088019E00D2C06D10D48008840
:1019A00040F480400B49088010E00A480088C0F3EA
:1019B0000D0009490C5407480088401C054908805F
:1019C00008460088C72801DD0020088010BD0000FF
:1019D0000010014030000020C000002021B18289A9
:1019E00042F40052828104E082894DF6FF731A406E
:1019F0008281704770B50246002400230025002034
:101A000040F66A16B14200D100BFC1F3421501F0A1
:101A10001F03012606FA03F3012D02D196893340F4
:101A200006E0022D02D1168A334001E0968A334047
:101A30000C12012606FA04F41688344013B10CB1D6
:101A4000012000E0002070BDF0B503460024002610
:101A50000025002040F66A17B94200D100BF1846A1
:101A6000C1F3421401F01F06012707FA06F5012C05
:101A700001D10C3004E0022C01D1103000E0143010
:101A80001AB107682F43076002E00768AF43076099
:101A9000F0BD00002DE9FF4705460E460024A14693
:101AA00000BFA046B08900B100BF2C8A24F4405486
:101AB000F08804432C82AC8941F20C608443B088E6
:101AC00031890843718908430443AC81AC8A24F40A
:101AD0004074B0890443AC826846FFF701FE204899
:101AE000854202D01F48854202D1DDF80C9001E00A
:101AF000DDF80890A88900F4004040B109EBC90066
:101B000000EB091031684900B0FBF1F707E009EB81
:101B1000C90000EB091031688900B0FBF1F76420BF
:101B2000B7FBF0F004012009642101FB1078A889BB
:101B300000F4004040B1322000EBC800B0FBF1F0EF
:101B400000F00700044308E0322000EB0810642195
:101B5000B0FBF1F000F00F0004432C81BDE8FF87DB
:101B6000001001400014014001468888C0F30800BD
:101B7000704700BFFEE703B401984100009850EAA7
:101B8000C12018BF04204A0D18BF40F0010040F2E8
:101B9000FF72B2EB515F08BF40F00200012808BF9E
:101BA000052002B0704730380A2801D20120704762
:101BB0000020704700BF704770B504460420FFF74F
:101BC00079FE0C48047025464FF47A704543012095
:101BD000094908804FF0E020006940F002004FF012
:101BE000E021086108464561006940F00100086194
:101BF00070BD0000280000202A0000202DED028B7F
:101C000016E00C4890ED000ADFED0B0A30EE200ADA
:101C100080ED000A006801F055FE41EC180B53EC12
:101C2000182B06A0FEF78EFB4FF47A7000F07AFFB7
:101C3000E7E70000100000200AD7233C666C6F61C4
:101C4000745F6E756DB5C4D6B5CEAA3A20252E3414
:101C5000660D0A0000BF054A128802F04002002A01
:101C6000F9D0C2B2014B9A807047000000100140C9
:101C700009E005480068C0430449C1F8A4024FF4D4
:101C8000FA7000F04FFFF4E7A48242420080424223
:101C90000DE0002006490860C82000F043FF012045
:101CA0000449C1F8A8024FF4487000F03BFFF0E788
:101CB000A8824242008042421CB54FF44070FFF7B8
:101CC000E5FCA820FFF778FF4FF4E13000F092FD2B
:101CD000FFF77CFC0648012100238022CDE900109B
:101CE00004A1074801F032FB01F028F800201CBDD8
:101CF0000000002073746172745F7461736B000084
:101D0000612700082DE9F04105460E462648076880
:101D100026480068001D00F0C3FD50B92348006844
:101D200090F82C10012088402149096881432048FF
:101D30000160681CD8B9D6B11E4948681B490968BA
:101D400088601A4982680968CA6018490968091DCB
:101D50008268516015490968091D8160154A134957
:101D600009684A6111460968491C11601AE07C192A
:101D70000E4800684460BC4207D20C480168091D47
:101D80000D48006800F0B0FD0CE008480168091D2E
:101D90000A48006800F0A8FD09480068844201D2A2
:101DA00007480460BDE8F081800000206C0000203E
:101DB000840000207C2E0120740000207000002090
:101DC0009C00002010B5044600F0B4FD31480068C6
:101DD000401C304908603048006840B92E48046013
:101DE0000846006801280DD100F0B2F90AE02B483E
:101DF000006838B928480068C06AE16A884201D89A
:101E00002548046026480068401C254908600846AB
:101E10000068206494F82C1001208840214909684A
:101E2000084320490860E16A01EB81011E4A02EB88
:101E300081014868A0608268E260211D826851606B
:101E40008160E16A01EB8101174A02EB8102626164
:101E5000E16A01EB8101144A52F82110491CE26A3F
:101E600002EB8202104B43F8221000F08DFD0B486C
:101E7000006868B108480068C06AE16A884207D211
:101E80004FF0805009490860BFF34F8FBFF36F8F49
:101E900010BD00007C0000206C00002088000020A5
:101EA0009800002084000020C82D012004ED00E0EF
:101EB00010B500F03FFD10480068D0B90F4800F0A1
:101EC00003FD0F4800F000FD0C480E4908600C4867
:101ED0000D49086000220C210A2001F099F80649FA
:101EE00008600846006820B108A10348006800F0B7
:101EF000C3FD00F049FD10BDB4000020902E01206C
:101F0000A42E0120AC000020B0000020546D7251BE
:101F10000000000010B516E000F00CFD0C48C06891
:101F2000C468201D00F0BCFC0A480068401E094936
:101F3000086009480068401E0749086000F024FD59
:101F4000204600F020F8044800680028E4D110BDC5
:101F5000682E01207C0000207800002070B5044627
:101F60000D46206C70B1216CE0680144E160D4E959
:101F70000210884201D32168E1602846226CE168A2
:101F8000FEF773FA70BD10B50446206B00F01AFD21
:101F9000204600F017FD10BD0146084A126812687D
:101FA0000AB9012200E000220A600A6822B9034A45
:101FB0001268D268106800E000207047AC00002072
:101FC00030B54FF49633154800F007042CB1C01D0E
:101FD00020F00700114C041B1B1B0246104C226012
:101FE00000240F4D6C60D018083820F007000D4C0D
:101FF000206000240B4D2D686C600A4D2D682C600C
:102000001146441A4C60074C24680C60064D4C681D
:102010002C60064D4C682C6030BD0000880100200B
:10202000440000204C0000205400002050000020FC
:1020300000BFFFF76FFF064800680128F9D94FF08D
:10204000805004490860BFF34F8FBFF36F8FF0E7F4
:10205000C82D012004ED00E02DE9F04106460D46B3
:1020600017469846069C0DB9246000E02760E66399
:1020700025640121204600F0FFFF84F84C80BDE874
:10208000F0812DE9F05F82460F4690469B460A9EFE
:102090000C9C4FEA8801A522206BFEF72BFAA8F1D1
:1020A0000100216B01EB800929F0070909F0070005
:1020B00008B9012000E0002050B900BF502080F393
:1020C0001188BFF34F8FBFF36F8F00BF00BFFEE7D4
:1020D0007FB1002507E0795D04F134004155785D5A
:1020E00000B902E06D1C0A2DF5D300BF00213D2090
:1020F0000155052E01D2012000E0002050B900BF9B
:10210000502080F31188BFF34F8FBFF36F8F00BF54
:1021100000BFFEE7052E00D30426E662A664201D5C
:1021200000F0DFFB04F1180000F0DBFB2461C6F1D6
:102130000500A06164625A465146484600F0FAFA2A
:1021400020600B9808B10B980460BDE8F09F000078
:1021500010B5002407E004EB84010F4A02EB810074
:1021600000F0B2FB641C052CF5D30C4800F0ACFB6E
:102170000B4800F0A9FB0B4800F0A6FB0A4800F052
:10218000A3FB0A4800F0A0FB044809490860044882
:102190000849086010BD0000C82D01202C2E012028
:1021A000402E0120542E0120682E01207C2E01207B
:1021B000700000207400002010B50146164800E0B1
:1021C000006803688B42FBD30246436813448B428A
:1021D00004D143684C682344436001460A464B6877
:1021E00013440468A34211D10C4C03682468A34231
:1021F00008D04B680468646823444B6003681B681C
:102200000B6005E0054B1B680B6001E003680B6089
:10221000884200D0016010BD440000204C00002026
:102220002DE9F04104460D4616461F464FF00008C2
:1022300065602461B5420CD8F01BA169884202D3C5
:102240004FF0010811E0211D0948006800F04CFB27
:102250000BE0BE4204D2BD4202D34FF0010804E0BD
:10226000211D0448006800F03FFB4046BDE8F081B6
:10227000B0000020AC00002070B5054600F05AFB0D
:10228000A86B08B9012400E0002400F07DFB204683
:1022900070BD000070B505460E460E480068C06867
:1022A000C468201D00F0FCFA94F8280000F0040037
:1022B00028B132462946204600F0D6F805E094F8C9
:1022C000280000F0FE0084F828002046216A884794
:1022D00070BD0000AC0000207FB57FE001980028B1
:1022E0007CDB039C606908B9012000E0002010B984
:1022F000201D00F0D5FA684600F0E2F80546019886
:102300000A2869D2DFE800F06805072E365806086B
:102310002F3700BF00BF00BF94F8280040F0010035
:1023200084F828000298A269811803462A462046AC
:10233000FFF776FFA8B194F8280000F0040038B148
:102340000298A26981182A46204600F08DF805E01F
:1023500094F8280000F0FE0084F828002046216A46
:1023600088473AE000BF94F8280000F0FE0084F8A7
:10237000280032E000BF94F8280040F0010084F803
:1023800028000298A061A06908B1012000E00020A7
:1023900050B900BF502080F31188BFF34F8FBFF3B7
:1023A0006F8F00BF00BFFEE7A06941192B462A4688
:1023B0002046FFF735FF10E094F8280000F00200F7
:1023C00018B9204600F0FEFA05E094F8280000F065
:1023D000FE0084F8280000E000BF00BF002201A931
:1023E0000348006800F0B6FE00287FF477AF7FBD99
:1023F000B4000020F8B505460C4600F0EDFC684638
:1024000000F05EF80646009820BB44B9B54206D8F5
:1024100001F054F931462846FFF73CFF1CE03CB17F
:102420000E480068006808B9012000E0002004465A
:10243000A91B22460A48006800F04EFB01F03EF955
:1024400050B94FF0805007490860BFF34F8FBFF37A
:102450006F8F01E001F032F9F8BD0000B0000020FC
:10246000B400002004ED00E070B504460D461646A9
:1024700004E0A06905442046216A8847A069411903
:102480002B4632462046FFF7CBFE0028F1D170BD27
:1024900009480068006808B9012000E0002020B168
:1024A0004FF0FF300549086005E003480068C06848
:1024B0000068024908607047700000209C000020FE
:1024C00070B5044600F086FF05460748006885425F
:1024D00004D200F00BF80120206001E00020206011
:1024E00001480560284670BDBC00002070B508E0BA
:1024F0000D480068C06804684FF0FF312046FFF7C0
:10250000C9FE09480068006808B9012000E0002001
:102510000028EDD0044805680448006802490860B6
:102520000248056070BD0000AC000020B000002033
:102530000E480068401C08B9012000E0002050B996
:1025400000BF502080F31188BFF34F8FBFF36F8F10
:1025500000BF00BFFEE700BF502080F31188BFF32B
:102560004F8FBFF36F8F00BF00BFFEE760000020FA
:1025700008B500BF6846FFF70FFD044620460099E6
:10258000FFF738FFFFF7A8FEF4E770B5044600F048
:10259000D1F994F9455010E0606A08B9012000E0D3
:1025A000002038B904F1240000F0F8FF18B100F061
:1025B00071FB00E003E0681E45B2002DECDC00BFBB
:1025C000FF2084F8450000F0DFF900F0B3F994F93A
:1025D000445010E0206908B9012000E0002048B90B
:1025E00004F1100000F0DAFF08B100F053FB681EA0
:1025F00045B200E001E0002DECDC00BFFF2084F8D4
:10260000440000F0C1F970BD2DE9F04705464FF0D8
:10261000000900F0E1FB4248006808B9FFF7D0FC70
:1026200075B105F00700C0F11008C8F1FF30A842ED
:1026300001D2012000E0002008B9454400E0002557
:10264000012000EBE570002853D0002D51D0354813
:10265000006885424DD8344E3046046801E0264675
:1026600024686068A84202D220680028F7D12C486C
:10267000006884423DD0306800F10809206830606D
:102680006068401B102819D9671907F0070008B9BE
:10269000012000E0002050B900BF502080F31188D5
:1026A000BFF34F8FBFF36F8F00BF00BFFEE76068BF
:1026B000401B786065603846FFF77EFD1949606809
:1026C0000968081A17490860084600681749096828
:1026D000884203D21348006814490860606840F0DB
:1026E000004060600020206011480068401C1049D4
:1026F000086000F0E3FF09F0070008B9012000E0DE
:10270000002050B900BF502080F31188BFF34F8FD5
:10271000BFF36F8F00BF00BFFEE74846BDE8F087FC
:102720004C000020500000204400002054000020F5
:1027300058000020001F4FF080730360001F21F03D
:1027400001030360001F054B036014380260001F83
:102750006FF0020303602038704700003125000845
:102760001CB5044600F0E6F812480221002332228C
:10277000CDE9001010A1134800F0E8FD1248032134
:1027800000233222CDE9001010A1134800F0DEFD35
:102790001248042100238022CDE9001010A1134823
:1027A00000F0D4FD1248006800F0EAF900F0ECF8FF
:1027B0001CBD0000040000206C6564305F74617310
:1027C0006B000000711C0008080000206C6564317B
:1027D0005F7461736B000000911C00080C00002006
:1027E000666C6F61745F7461736B0000FD1B0008A1
:1027F0000000002010B588B0044601210846FEF70D
:102800004FFF01211020FEF75BFF0722092122481C
:10281000FEF7B5FE07220A211F48FEF7B0FE4FF46F
:10282000C060069002208DF81C008DF81D0000206D
:102830008DF81E0001208DF81F0006A91648FEF72E
:1028400056FE02940020ADF80C00ADF80E00ADF875
:102850001000ADF814000C20ADF8120002A90F48CA
:10286000FFF718F901210D48FFF7B8F8012240F2EF
:1028700025510A48FFF7E8F825208DF804000320C9
:102880008DF805008DF8060001208DF8070001A8DD
:10289000FEF7C0FE08B010BD00000240001001406D
:1028A00001460A69D1E901309860D1E90103586015
:1028B0005068884201D18868506000200861106823
:1028C000401E10601068704700F1080141604FF031
:1028D000FF31816000F10801C160016100210160E8
:1028E000704700210161704710B502460B685C1CFF
:1028F0000CB9106907E002F1080000E04068446884
:1029000024689C42FAD944684C604C68A160886095
:1029100041600A611468641C146010BD42684A601A
:1029200093688B60936859609160086103685B1CD1
:102930000360704700BF502080F31188BFF34F8FB2
:10294000BFF36F8F00BF0E480068401C0C49086041
:1029500008460068012812D10A480068C0B208B9C8
:10296000012000E0002050B900BF502080F3118802
:10297000BFF34F8FBFF36F8F00BF00BFFEE77047FD
:102980006000002004ED00E00D48006850B900BF71
:10299000502080F31188BFF34F8FBFF36F8F00BFBC
:1029A00000BFFEE706480068401E0549086008466B
:1029B000006820B9002080F3118800BF00BF704775
:1029C0006000002070B506463546002E3BD0083D1D
:1029D0002C466068C00F50B900BF502080F31188AA
:1029E000BFF34F8FBFF36F8F00BF00BFFEE72068BC
:1029F00008B9012000E0002050B900BF502080F34A
:102A00001188BFF34F8FBFF36F8F00BF00BFFEE78A
:102A10006068C00FB8B12068A8B9606820F00040B5
:102A2000606000F0D9F908496068096808440649FF
:102A300008602046FFF7C0FB04480068401C0349BB
:102A4000086000F03BFE70BD500000205C000020DC
:102A500000204FF0E02108618861064800684FF4CB
:102A60007A71B0FBF1F0401E4FF0E0214861072081
:102A7000086170471400002030B502460B46002163
:102A800052B900BF502484F31188BFF34F8FBFF3B6
:102A90006F8F00BF00BFFEE7BBB1002012E00D4CFE
:102AA00004EBC0046468944203D10A4C04EBC001F7
:102AB0000AE031B9074C54F8304014B9054C04EB26
:102AC000C001401C0828EAD300BF09B10B604A606E
:102AD00030BD0000882D01202DE9F04105460E464D
:102AE00017462C46FFF726FF94F94400401C10B906
:102AF000002084F8440094F94500401C10B90020DF
:102B000084F84500FFF740FFA06B28B93A463146EC
:102B100004F1240000F0E0F82046FFF736FDBDE8A0
:102B2000F081000070B504460025D4B11248006859
:102B300008B9012000E0002050B900BF502080F308
:102B40001188BFF34F8FBFF36F8F00BF00BFFEE749
:102B500000F042F900212046FFF7D4F800F0AEFD66
:102B600005463DB94FF0805004490860BFF34F8FD0
:102B7000BFF36F8F70BD0000A800002004ED00E0DF
:102B800070B50546FFF7D6FE15B93248006800E07B
:102B900028460446201DFFF783FE78B9E06A00EB63
:102BA00080002D4951F8200040B994F82C100120E4
:102BB00088402A490968814328480160A06A18B101
:102BC00004F11800FFF76CFE25480068401C2449FA
:102BD000086020480068844209D1211D2148FFF780
:102BE0009DFE21480068401C1F49086006E01F4800
:102BF0000068401E1D490860FFF74AFCFFF7C4FE4D
:102C000014480068844202D02046FFF7BCF91848F7
:102C10000068E8B10F480068844219D1154800687F
:102C200008B9012000E0002050B900BF502080F317
:102C30001188BFF34F8FBFF36F8F00BF00BFFEE758
:102C40004FF080500C490860BFF34F8FBFF36F8F78
:102C500070BD00006C000020C82D01208400002001
:102C600098000020682E0120780000207C000020C1
:102C700088000020A800002004ED00E00349096856
:102C8000016003490968416070470000940000201A
:102C9000800000200120014908607047900000205A
:102CA00070B504460D4654B900BF502080F311881A
:102CB000BFF34F8FBFF36F8F00BF00BFFEE7054824
:102CC000016818312046FFF70FFE01212846FFF763
:102CD00019F870BD6C00002070B504460E4615460C
:102CE00054B900BF502080F31188BFF34F8FBFF35A
:102CF0006F8F00BF00BFFEE760680F490968C861B9
:102D00000D49826809680A620B49096818318268AE
:102D100051600949096818318160074909688C6266
:102D20002168491C21600DB14FF0FF36294630461D
:102D3000FEF7E8FF70BD00006C0000201CB51E48C7
:102D400000210B468222CDE900101CA11D4800F095
:102D5000FDFA0446012C02D100F06CFD0446012C62
:102D600015D100BF502080F31188BFF34F8FBFF300
:102D70006F8F00BF4FF0FF301349086001201349E7
:102D8000086000201249086000F074F810E0601C30
:102D900008B1012000E0002050B900BF502080F3AE
:102DA0001188BFF34F8FBFF36F8F00BF00BFFEE7E7
:102DB000084800681CBD0000A000002049444C45A4
:102DC00000000000312000089C0000208800002046
:102DD00080000020A400002002480068401C014937
:102DE00008607047A80000201D48006818B1012045
:102DF0001C49086032E000201A4908601A4800683F
:102E0000B0FA80F0C0F11F0101EB8100174A52F8BF
:102E1000200008B1012000E0002050B900BF502080
:102E200080F31188BFF34F8FBFF36F8F00BF00BFD8
:102E3000FEE701EB81020D4B03EB82004268526812
:102E4000426000F108024368934202D1426852682E
:102E500042604268D268064B1A6000BF70470000AB
:102E6000A80000209000002084000020C82D012030
:102E70006C0000201CB5524800685249884201D0BD
:102E8000012000E0002050B900BF502080F31188DD
:102E9000BFF34F8FBFF36F8F00BF00BFFEE74848FF
:102EA00000684849491E884201D0012000E0002006
:102EB00050B900BF502080F31188BFF34F8FBFF38C
:102EC0006F8F00BF00BFFEE73F49084600780190C2
:102ED000FF200A4610700846007800909DF8000018
:102EE00000F0F0009DF80020904201D1012000E0A8
:102EF000002050B900BF502080F31188BFF34F8FDE
:102F0000BFF36F8F00BF00BFFEE79DF8000000F029
:102F100050002E4A107007202D4A106009E02C48FE
:102F20000068401E2A4A10609DF800004006000E0E
:102F300000909DF8000000F080008028EFD0244829
:102F40000068C0F10700042801D1012000E0002042
:102F500050B900BF502080F31188BFF34F8FBFF3EB
:102F60006F8F00BF00BFFEE7194800680002184AD3
:102F700010601046008800F4E0601060124A01986A
:102F800010700F482030006840F470000C49203168
:102F900008600846006840F070400860FFF758FD80
:102FA00000200C490860FDF76FF90B48006840F0FD
:102FB000404009490860FDF753F900201CBD00009E
:102FC00000ED00E071C20F4100E400E06400002069
:102FD000680000206000002034EF00E010B500BF62
:102FE000502080F31188BFF34F8FBFF36F8F00BF66
:102FF00000F0F6F918B14FF080500449086000BFA6
:10300000002080F3118800BF10BD000004ED00E037
:103010002DE9F84305460E4617460024E5B1601E2B
:10302000B0FBF5F0B04217D305FB06F010F1510FDD
:1030300012D805FB06F808F15000FFF7E5FA044640
:10304000B4B1A14609F150093B464A4631462846EB
:103050000094FFF701F80BE054B900BF502080F353
:103060001188BFF34F8FBFF36F8F00BF00BFFEE724
:103070002046BDE8F88300002DE9F04105460E46E4
:1030800001272C4654B900BF502080F31188BFF3AC
:103090004F8FBFF36F8F00BF00BFFEE7002C42D001
:1030A000E06B00283FD04FF0FF31E06BB1FBF0F058
:1030B000216C884237D3FFF73DFCD4E90F1220681A
:1030C00001FB0200A0600020A06320686060E06B4C
:1030D000401E226C216800FB0211E160FF2084F891
:1030E000440084F845009EB9206908B9012000E039
:1030F0000020A8B904F1100000F050FA80B14FF0A0
:10310000805013490860BFF34F8FBFF36F8F07E004
:1031100004F11000FFF7D8FB04F12400FFF7D4FB03
:10312000FFF732FC00E000270FB1012000E0002093
:1031300050B900BF502080F31188BFF34F8FBFF309
:103140006F8F00BF00BFFEE73846BDE8F08100008A
:1031500004ED00E02DE9F74183B005460E464FF03F
:1031600000082C4654B900BF502080F31188BFF3EB
:103170004F8FBFF36F8F00BF00BFFEE70EB9206C0B
:1031800008B9012000E0002050B900BF502080F3B2
:103190001188BFF34F8FBFF36F8F00BF00BFFEE7F3
:1031A00000F008F908B9059808B9012000E00020EE
:1031B00050B900BF502080F31188BFF34F8FBFF389
:1031C0006F8F00BF00BFFEE700BFFFF7B3FBA76B29
:1031D000F7B131462046FEF7C1FE781EA063206994
:1031E00008B9012000E0002060B904F1100000F0EF
:1031F000D5F938B14FF080502F490860BFF34F8F99
:10320000BFF36F8FFFF7C0FB012006B0BDE8F08170
:10321000059818B9FFF7B8FB0020F6E7B8F1000FE2
:1032200004D101A8FFF72AFD4FF00108FFF7ACFB1E
:10323000FFF7D2FDFFF77EFB94F94400401C10B964
:10324000002084F8440094F94500401C10B9002087
:1032500084F84500FFF798FB05A901A800F02EF8B7
:10326000F0B92046FFF708F8A0B104F12400059951
:10327000FFF716FD2046FFF788F900F01FFA002837
:10328000A3D14FF080500C490860BFF34F8FBFF3BC
:103290006F8F9AE72046FFF778F900F00FFA94E76E
:1032A0002046FFF772F900F009FA2046FEF7E4FF26
:1032B00000288AD00020A8E704ED00E070B505469C
:1032C0000C4655B900BF502080F31188BFF34F8FD3
:1032D000BFF36F8F00BF00BFFEE754B900BF50209F
:1032E00080F31188BFF34F8FBFF36F8F00BF00BF14
:1032F000FEE7FFF71FFB134802686868131A20688F
:10330000401C08B9002619E00F492868096888425E
:1033100006D06868904203D80126002020600DE0A6
:103320002068984207D92068C01A20602846FFF715
:10333000A5FC002602E0002020600126FFF724FB08
:10334000304670BD80000020940000202DE9FF4F22
:1033500085B0804689461746DDE912ABB800FFF715
:1033600053F9064676B15820FFF74EF904462CB1C2
:1033700058212046FDF7E8F8266304E03046FFF7C1
:1033800021FB00E000247CB10020CDE900ABCDE9B9
:1033900002403A4649464046089BFEF772FE2046E8
:1033A000FEF710FD012501E04FF0FF35284609B07A
:1033B000BDE8F08F0549096809B9012005E0044915
:1033C000096809B9022000E0002070478800002049
:1033D000A800002001490868704700008000002014
:1033E0002DE9F0414FF000086148006800287DD1C8
:1033F00060480068451C5F48056015BB5E48006872
:10340000006808B9012000E0002050B900BF50203A
:1034100080F31188BFF34F8FBFF36F8F00BF00BFE2
:10342000FEE7554807685548006853490860534807
:10343000076053480068401C51490860FFF728F8AE
:1034400000BF50480068854277D300BF4A480068F3
:10345000006808B9012000E0002020B14FF0FF30E3
:103460004849086068E044480068C068C468666805
:10347000B54202D2434806605EE06069D4E90212B8
:103480008A60D4E902214A60211D42688A4201D142
:10349000E1684160002262610168491E0160A06A22
:1034A00098B1A06AD4E907128A60D4E907214A607A
:1034B00004F1180142688A4201D1216A4160002268
:1034C000A2620168491E016000BF94F82C1001201F
:1034D00088402D49096808432B490860E16A01EBDF
:1034E00081012A4A02EB8101486800E037E0A060D0
:1034F0008268E260211D826851608160E16A01EBAF
:103500008101224A02EB81026261E16A01EB8101E1
:103510001E4A52F82110491CE26A02EB82021B4B40
:1035200043F822101A49E06A0968C96A88428DD9AD
:103530004FF001088AE700E000BF15480068C06A44
:1035400000EB8000114951F82000012801D94FF00B
:1035500001081048006808B14FF0010804E00E4867
:103560000068401C0C4908604046BDE8F08100003E
:10357000A8000020800000207000002074000020BF
:10358000940000209C00002084000020C82D012011
:103590006C000020900000208C00002070B50346D5
:1035A000D868C16851B900BF502080F31188BFF3BB
:1035B0004F8FBFF36F8F00BF00BFFEE7886AD1E96E
:1035C0000745A560D1E90754656001F11804456815
:1035D000A54201D10C6A446000258D620468641E16
:1035E00004603048006800283DD14869D1E90245AF
:1035F000A560D1E9025465600C1D4568A54201D162
:10360000CC68446000254D610468641E046091F834
:103610002C400120A040244C24682043224C2060F0
:10362000CC6A04EB8404214D05EB84046068886057
:103630008568CD600C1D85686C608460CC6A04EB85
:1036400084041A4D05EB84054D61CC6A04EB8404B7
:10365000164D55F82440641CCD6A05EB8505134EC4
:1036600046F8254010E0124C6068C86185680D621C
:1036700001F1180485686C6084600D4D8D622C46E4
:103680002468641C2C6000BF0A4CC86A2468E46A81
:10369000A04204D901220120074C206000E0002252
:1036A000104670BDA800002084000020C82D012015
:1036B000542E01206C0000209000002070B50024E2
:1036C00000265348006850B900BF502080F311888D
:1036D000BFF34F8FBFF36F8F00BF00BFFEE7FFF751
:1036E00029F94B480068401E4949086008460068AF
:1036F00000287DD147480068002879D05BE0464823
:10370000C068C468A06AD4E907128A60D4E90721B6
:103710004A6004F1180142688A4201D1216A41607D
:103720000022A2620168491E01606069D4E90212A8
:103730008A60D4E902214A60211D42688A4201D18F
:10374000E1684160002262610168491E016094F8ED
:103750002C10012088403149096808432F4908602E
:10376000E16A01EB81012E4A02EB81014868A06009
:103770008268E260211D826851608160E16A01EB2C
:103780008101274A02EB81026261E16A01EB81015A
:10379000234A52F82110491CE26A02EB8202204BB4
:1037A00043F822101F49E06A0968C96A884202D3B7
:1037B00001201D4908601848006808B9012000E090
:1037C000002000289BD00CB1FEF762FE1748056868
:1037D00065B100BFFFF704FE10B101201249086077
:1037E0006D1E002DF6D10020104908600E4800E043
:1037F00009E0006838B1012630070D490860BFF3C1
:103800004F8FBFF36F8FFFF7BFF8304670BD0000DA
:10381000A80000207C000020542E012084000020FD
:10382000C82D01206C000020900000208C0000209A
:1038300004ED00E01CB50024FEF73AFB0E480068DA
:1038400058B10E48022100234FF48272CDE90010D6
:103850000BA10D48FFF77AFD044654B900BF502074
:1038600080F31188BFF34F8FBFF36F8F00BF00BF8E
:10387000FEE720461CBD0000B4000020B800002078
:10388000546D7220537663007125000810B500292D
:103890000AD00878002807D005487844FDF71CFABC
:1038A000002801D0002010BD0248784410BD00005F
:1038B000CE010000C60100000808A0F500114FEA83
:1038C0003101704743004FEAD30C4FEA3C0C4340B0
:1038D0001FBF40070CF1605113F0FE4F70471CF002
:1038E000006F03D100200CF0004170470CF0004342
:1038F00043EA507010B540EACC0000F00EF800BF6B
:10390000000000924FEA0001FFF7D6BF4FF00041E0
:103910004FF00000A1F5002170470EF1020E2EF0CD
:10392000030E5EF8044B244204D44FEA4102B2F184
:103930007F4F11D84FEA4003B3F17F4F0CD80ED11F
:103940004FEAD07CB2F17F4F0CEB4C0C0CF1020C27
:1039500008BF4CEBD17C04E04FF0080C01E04FEACB
:10396000D17C0CEB4C0324FA03F404F00704B4F10B
:10397000040C06D20EEB840CBDE810404CF0010C98
:103980006047DFE80CF0070802024FF00040A0F5A6
:10399000800010BD0846420018BFD2F1807288BF77
:1039A00000F0004010BD4FF04070E1EE100A70478B
:1039B000FCF7CEBE02400000000000A000000000A6
:1039C00005400000000000C8000000000C4000009E
:1039D0000000409C00000000194000000020BCBE18
:1039E0000000000034400000BFC91B8E000000042E
:1039F000B5400000504BCFD06607E2CF0100000079
:103A00006C4100003E8251AADFEEA73401000000A5
:103A1000D9420000DCB5A0E23A301F97FFFFFFFF5C
:103A2000B4450000FD25A0C8E9A3C14FFFFFFFFF7B
:103A3000FF3F00000000008000000000FF3F00008A
:103A40000000008000000000843A00080000002010
:103A5000C0000000C4010008443B0008C000002072
:103A600058340100E00100081C0000004300000081
:103A7000F8FFFFFF0C0000000E0000000F00000028
:103A80002E00000000000000000000000000000008
:103A90000000000000000000007A030A000000009F
:103AA00000000000010203040607080900000000EE
:103AB00000000000000000000000010203040102F9
:103AC00003040607080900000000000000000000D1
:103AD00000000000000000000000000000000000E6
:103AE00000000000AAAAAAAA00000000000000002E
:103AF00000000000000000000000000000000000C6
:103B000000000000000000000000000000000000B5
:103B100000000000000000000000000000000000A5
:103B20000000000000000000040000000000000091
:103B30000000000000000000000000000000000085
:043B40000000000081
:040000050800018965
:00000001FF
