:020000040800F2
:1000000010350120E9020008A10800083D0700089A
:100010009D0800082905000897100008000000004E
:10002000000000000000000000000000290200089D
:100030002D0500080000000085020008110C0008D2
:100040000303000803030008030300080303000878
:100050000303000803030008030300080303000868
:100060000303000803030008310500080303000828
:100070000303000803030008030300080303000848
:100080000303000803030008030300080303000838
:100090000303000803030008030300080303000828
:1000A0000303000803030008030300080303000818
:1000B00003030008890C0008030300080303000879
:1000C00003030008030300080303000803030008F8
:1000D00003030008790E0008030300080303000867
:1000E00003030008030300080303000803030008D8
:1000F00003030008030300080303000803030008C8
:100100000303000803030008150D0008030300089B
:1001100003030008030300080303000803030008A7
:100120000303000803030008030300080303000897
:100130000303000803030008030300080303000887
:100140000303000803030008030300080303000877
:100150000303000803030008030300080303000867
:100160000303000803030008030300080303000857
:100170000303000803030008030300080303000847
:10018000030300080303000800F002F800F03CF845
:100190000AA090E8000C82448344AAF10107DA45E2
:1001A00001D100F031F8AFF2090EBAE80F0013F0F8
:1001B000010F18BFFB1A43F001031847182B00006A
:1001C000382B0000103A24BF78C878C1FAD85207FB
:1001D00024BF30C830C144BF04680C6070470000C1
:1001E0000023002400250026103A28BF78C1FBD840
:1001F000520728BF30C148BF0B6070471FB502F0DF
:1002000063FD1FBD10B510BD00F05BF91146FFF78F
:10021000F5FF00F0ABFF00F079F903B4FFF7F2FF50
:1002200003BC00F03AFF00002C4B19680868B0E8E6
:10023000F04F80F30988BFF36F8F4FF0000080F319
:10024000118870470000000008480068006880F3CB
:1002500008884FF0000080F3148862B661B6BFF3DF
:100260004F8FBFF36F8F00DF00BF00BF08ED00E0CE
:10027000DFF80C00016841F470010160704700BFB5
:1002800088ED00E0EFF30980BFF36F8F134B1A681E
:100290001EF0100F08BF20ED108A20E9F04F10600B
:1002A00009B44FF0500080F31188BFF34F8FBFF3B4
:1002B0006F8F01F0B7FF4FF0000080F3118809BC89
:1002C00019680868B0E8F04F1EF0100F08BFB0ECD6
:1002D000108A80F30988BFF36F8F70476400002095
:1002E000EFF3058070470000094880470948004740
:1002F000FEE7FEE7FEE7FEE7FEE7FEE7FEE7FEE7D6
:10030000FEE7FEE704480549054A064B7047000032
:10031000210C000889010008102F01201035012050
:1003200010310120103101207047032A40F2308043
:1003300010F0030C00F0158011F8013BBCF1020F26
:10034000624498BF11F801CB00F8013B38BF11F8A7
:10035000013BA2F1040298BF00F801CB38BF00F8BE
:10036000013B11F0030300F07A80083AC0F00880E6
:1003700051F8043B083A51F804CBA0E80810F5E71F
:10038000121D5CBF51F8043B40F8043BAFF3008002
:10039000D20724BF11F8013B11F801CB48BF11F877
:1003A000012B24BF00F8013B00F801CB48BF00F847
:1003B000012B704702F0FF0343EA032242EA0242A4
:1003C00000F002B84FF000020429C0F0128010F0D3
:1003D000030C00F01B80CCF1040CBCF1020F18BF21
:1003E00000F8012BA8BF20F8022BA1EB0C0100F0B4
:1003F0000DB85FEAC17C24BF00F8012B00F8012B87
:1004000048BF00F8012B70474FF0000200B51346BB
:1004100094469646203922BFA0E80C50A0E80C5024
:10042000B1F12001BFF4F7AF090728BFA0E80C50D5
:1004300048BF0CC05DF804EB890028BF40F8042BCE
:1004400008BF704748BF20F8022B11F0804F18BF3B
:1004500000F8012B7047704770477047704710B520
:10046000203AC0F00B80B1E81850203AA0E81850AC
:10047000B1E81850A0E81850BFF4F5AF5FEA027C6D
:1004800024BFB1E81850A0E8185044BF18C918C0DC
:10049000BDE810405FEA827C24BF51F8043B40F87D
:1004A000043B08BF7047D20728BF31F8023B48BF62
:1004B00011F8012B28BF20F8023B48BF00F8012BA0
:1004C0007047754600F02CF8AE4605006946534665
:1004D00020F00700854618B020B5FFF713FFBDE8F0
:1004E00020404FF000064FF000074FF000084FF09B
:1004F000000B21F00701AC46ACE8C009ACE8C0092C
:10050000ACE8C009ACE8C0098D46704710B5044698
:10051000AFF300802046BDE81040FFF77EBE00002C
:1005200000487047B02E012000BFFEE77047000072
:1005300010B51021084800F0F6F848B900BF502067
:1005400080F31188BFF34F8FBFF36F8F00BF00BFE1
:10055000102000F02DF810BD001002400EB500F084
:10056000EFF80121880300F003FA0421084600F0A7
:1005700083FA1020009000208DF804000C208DF8E4
:10058000050001208DF80600684600F017F80A20E3
:100590008DF8080005208DF8090000208DF80A006C
:1005A00001208DF80B0002A800F07CF90EBD0000C0
:1005B0000149086070470000143C014000212349B4
:1005C0008279002A3AD00A46126803689A430B4699
:1005D0001A600A1D126803689A430B1D1A6002799B
:1005E00011440A6803681A430A60184A08321268FC
:1005F00003689A43154B08331A601A1D1268036882
:100600009A43124B0C331A604279102A0ED11A1FEA
:10061000126803681A430D4B08331A601A1D1268DA
:1006200003681A43094B0C331A600DE007494279FD
:1006300011440A6803681A430A6005E0027911440C
:100640000A6803689A430A6070470000003C014052
:10065000F0B50A4600210023002400BF3DE001253B
:1006600005FA01F3156805EA03049C4234D10568D4
:100670004F000326BE40B543056015794E00B540D6
:100680000668354305601579012D02D01579022DD4
:1006900016D185684F000326BE40B5438560557965
:1006A0004E00B540866835438560456801268E401A
:1006B000B5434560456896798E40B6B2354345608E
:1006C000C5684F000326BE40B543C560D5794E00CE
:1006D000B540C6683543C560491C1029BFD3F0BD7D
:1006E000F0B5002300244D07ED0E02FA05F3CE10FD
:1006F00000F1200555F826504E07F70E0F26BE4094
:10070000B543CF1000F1200646F82750CE1000F177
:10071000200555F8265045EA0304CE1000F12005C7
:1007200045F82640F0BD0246002013690B400BB18E
:10073000012000E0002070470183704700BFFEE702
:100740001CB50121112000F0F3F81C2000900020BE
:100750008DF8040003208DF8050001208DF80700B6
:1007600069460648FFF774FF0120009002208DF8CB
:10077000070069460248FFF76BFF1CBD00100240EE
:100780000000024010B5044614B101202A49087047
:100790002948007890B308212848FFF7C4FF50B1DA
:1007A00004212648FFF7BFFF28B101212448FFF7A5
:1007B000BAFF012823D10A2000F094FC00201E4932
:1007C000087010211D48FFF7AEFF08B9012010BDC9
:1007D00008211A48FFF7A7FF08B90220F7E704210C
:1007E0001648FFF7A0FF08B90320F0E701211448DD
:1007F000FFF799FF01281CD10420E8E7FFE710214B
:100800000E48FFF790FF012813D108210B48FFF78E
:100810008AFF01280DD104210848FFF784FF012831
:1008200007D101210648FFF77EFF10B901200249D8
:1008300008700020CBE700001C00002000100240E0
:100840000000024009E00020FFF79CFF022804D1CD
:10085000002080F3118800BF00BFF4E71CB5012120
:10086000202000F065F84FF4C060009001208DF862
:10087000040000208DF8060003208DF805000120FB
:100880008DF8070069460448FFF7E2FE4FF4C061A7
:100890000148FFF751FF1CBD0014024000BFFEE7F6
:1008A0007047000070B5002100230F22C4781CB3EC
:1008B000174C246804F4E064C4F5E064C4F3072131
:1008C000C1F10404E3B20A4144789C40E1B2847867
:1008D000144021430C07210E0E4C05786155047815
:1008E00004F01F050124AC4005786D11AD0005F141
:1008F000E025C5F8004109E0047804F01F05012453
:10090000AC40054D0678761145F8264070BD0000D4
:100910000CED00E000E400E080E100E0024901436A
:10092000024A1160704700000000FA050CED00E07B
:1009300029B1064A12680243044B1A6004E0034AD4
:1009400012688243014B1A60704700003038024041
:1009500029B1064A12680243044B1A6004E0034AB4
:1009600012688243014B1A60704700004038024011
:1009700029B1064A12680243044B1A6004E0034A94
:1009800012688243014B1A607047000044380240ED
:10099000F0B5002100220024022500260223324F58
:1009A0003F6807F00C0121B1042905D0082937D18F
:1009B00005E02E4F076036E02D4F076033E02A4FE9
:1009C0003F1F3F68C7F38056274F3F1F3F6807F020
:1009D0003F036EB1264FB7FBF3F7DFF88CC0ACF1E5
:1009E000040CDCF800C0CCF3881C07FB0CF40CE012
:1009F0001E4FB7FBF3F7DFF870C0ACF1040CDCF866
:100A000000C0CCF3881C07FB0CF4174F3F1F3F6856
:100A1000C7F301477F1C7D00B4FBF5F7076002E0D8
:100A2000124F076000BF00BF0F4F3F6807F0F00193
:100A30000909104F7A5C0768D74047600A4F3F6842
:100A400007F4E051890A0B4F7A5C4768D74087600A
:100A5000054F3F6807F46041490B064F7A5C4768D1
:100A6000D740C760F0BD0000083802400024F40001
:100A700000127A002A00002030B500228B071C0FDC
:100A80000F2303FA04F20B4B8C1053F824309343DA
:100A9000084C8D1044F8253023468C1053F8243030
:100AA0008C07240F00FA04F42343024C8D1044F801
:100AB000253030BD083801400CB500200190009071
:100AC0003448006840F480303249086000BF314843
:100AD000006800F4003000900198401C01900098DC
:100AE00018B90198B0F5A04FF1D12A48006800F478
:100AF000003010B10120009001E00020009000982B
:100B0000012846D123484030006840F080502149F8
:100B1000403108602048006840F440401E490860A9
:100B20001C48083000681B49083108600846006806
:100B300040F4004008600846006840F4A050086097
:100B40001648091F0860081F006840F08070091FE0
:100B5000086000BF0F48006800F000700028F9D05E
:100B600040F205700E4908600A480830006820F01D
:100B700003000849083108600846006840F0020098
:100B8000086000BF03480830006800F00C00082827
:100B9000F8D10CBD003802400070004008544007F6
:100BA000003C02401CB5044601F0E2F8084802216E
:100BB00000233222CDE9001006A1094801F0E4FD2E
:100BC0000848006801F0FAF901F0FCF81CBD0000CB
:100BD000040000204B45595F5461736B0000000016
:100BE0004508000800000020042808D14FF0E0214B
:100BF000096941F004014FF0E022116107E04FF074
:100C0000E021096921F004014FF0E02211617047F1
:100C100010B501F0EDFD012801D001F0FDFB10BD84
:100C200010B51548006840F4700013490860134877
:100C3000006840F001001149086000200F490831A8
:100C400008600E4800680E4908400C4908600D48CD
:100C5000091D0860081F006820F48020091F086033
:100C6000002006490C310860FFF726FF4FF00060B6
:100C700001498039086010BD88ED00E0003802406D
:100C8000FFFFF6FE1030002410B50121084800F0E7
:100C900096F8012807D10748006808B9012000E04C
:100CA0000020044908600121014800F079F810BDD6
:100CB00000040040A48242427FB505460C46012153
:100CC0000220FFF745FE0295ADF804400020ADF884
:100CD0000600ADF80C0001A90D4800F08BF80122C8
:100CE00011460B4800F07CF80121094800F05BF840
:100CF0001D208DF8000004208DF8010000208DF8E3
:100D0000020001208DF803006846FFF7CBFD7FBD90
:100D10000004004010B50121084800F050F80128F7
:100D200007D10748006808B9012000E00020044905
:100D300008600121014800F033F810BD000C0040AC
:100D4000A88242427FB505460C4601210820FFF7E4
:100D5000FFFD0295ADF804400020ADF80600ADF8A7
:100D60000C0001A90D4800F045F8012211460B487E
:100D700000F036F80121094800F015F832208DF80E
:100D8000000005208DF8010000208DF802000120F0
:100D90008DF803006846FFF785FD7FBD000C00401D
:100DA000CA430282704721B1028842F001020280E8
:100DB00004E002884FF6FE731A400280704730B597
:100DC0000246002000230024158A05EA01039589C4
:100DD00005EA010413B10CB1012000E0002030BD90
:100DE0001AB183890B43838102E083898B4383811A
:100DF0007047000000220288184B98420ED0184B12
:100E000098420BD0B0F1804F08D0164B984205D0D5
:100E1000154B984202D0154B984204D14FF68F7370
:100E20001A404B881A43124B984207D0114B9842F4
:100E300004D04FF6FF431A400B891A4302804B68D7
:100E4000C3620B880385054B984202D0044B98423D
:100E500001D18B7A03860123838270470000014011
:100E6000000401400004004000080040000C004065
:100E7000001000400014004010B540F225511D48FC
:100E800000F04AF810B31B4800F000F9C4B21A4849
:100E9000008800F40040C8B91748008800F480407A
:100EA00060B10A2C03D000201349088020E01248CA
:100EB000008840F400401049088019E00D2C06D14C
:100EC0000D48008840F480400B49088010E00A4833
:100ED0000088C0F30D0009490C5407480088401CE5
:100EE0000549088008460088C72801DD00200880E1
:100EF00010BD00000010014028000020B8000020B4
:100F000021B1828942F40052828104E082894DF647
:100F1000FF731A408281704770B502460024002397
:100F20000025002040F66A16B14200D100BFC1F38F
:100F3000421501F01F03012606FA03F3012D02D129
:100F40009689334006E0022D02D1168A334001E033
:100F5000968A33400C12012606FA04F416883440AF
:100F600013B10CB1012000E0002070BDF0B50346C4
:100F7000002400260025002040F66A17B94200D15F
:100F800000BF1846C1F3421401F01F06012707FAFB
:100F900006F5012C01D10C3004E0022C01D11030F7
:100FA00000E014301AB107682F43076002E00768B9
:100FB000AF430760F0BD00002DE9FF4705460E4630
:100FC0000024A14600BFA046B08900B100BF2C8A12
:100FD00024F44054F08804432C82AC8941F20C6024
:100FE0008443B08831890843718908430443AC8144
:100FF000AC8A24F44074B0890443AC826846FFF79D
:10100000C7FC2048854202D01F48854202D1DDF846
:101010000C9001E0DDF80890A88900F4004040B190
:1010200009EBC90000EB091031684900B0FBF1F78A
:1010300007E009EBC90000EB091031688900B0FB3B
:10104000F1F76420B7FBF0F004012009642101FBF3
:101050001078A88900F4004040B1322000EBC800AD
:10106000B0FBF1F000F00700044308E0322000EB91
:1010700008106421B0FBF1F000F00F0004432C8154
:10108000BDE8FF8700100140001401400146888838
:10109000C0F30800704700BFFEE700BF70470000C4
:1010A00070B504460420FFF79FFD0C4804702546E8
:1010B0004FF47A7045430120094908804FF0E02041
:1010C000006940F002004FF0E021086108464561E8
:1010D000006940F00100086170BD00001E000020A2
:1010E0002000002070B5044601F082FB012810D0DA
:1010F0000B480088844206D309480088B4FBF0F509
:10110000284600F02DFF06480088B4FBF0F100FBF4
:1011100011444FF47A7104FB01F000F003F870BD44
:101120002000002070B5034600224FF0E0267569CC
:101130000D4E367803FB06F44FF0E026B16910E05F
:101140004FF0E026B06988420BD0884202D20E1AD6
:10115000324402E02E1A0E4432440146A24200D329
:1011600000E0EDE700BF70BD1E0000201CB54FF48D
:101170004070FFF7D3FBA820FFF792FF4FF4E13058
:1011800000F056FDFFF76AFBFFF7E8F942F2CF01E6
:1011900042F20F70FFF790FD42F2CF0142F20F7062
:1011A000FFF7D0FD0648012100238022CDE9001081
:1011B00004A1074801F0E8FA00F0DEFF00201CBDA2
:1011C0000000002053746172745F5461736B0000FF
:1011D000A50B00082DE9F04105460E462648076894
:1011E00026480068001D00F079FD50B923480068CA
:1011F00090F82C100120884021490968814320483B
:101200000160681CD8B9D6B11E4948681B490968F5
:1012100088601A4982680968CA6018490968091D06
:101220008268516015490968091D8160154A134992
:1012300009684A6111460968491C11601AE07C1965
:101240000E4800684460BC4207D20C480168091D82
:101250000D48006800F066FD0CE008480168091DB3
:101260000A48006800F05EFD09480068844201D227
:1012700007480460BDE8F081780000206400002089
:101280007C000020742E01206C00002068000020EB
:101290009400002010B5044600F06AFD3148006853
:1012A000401C304908603048006840B92E4804604E
:1012B0000846006801280DD100F0B2F90AE02B4879
:1012C000006838B928480068C06AE16A884201D8D5
:1012D0002548046026480068401C254908600846E7
:1012E0000068206494F82C10012088402149096886
:1012F000084320490860E16A01EB81011E4A02EBC4
:1013000081014868A0608268E260211D82685160A6
:101310008160E16A01EB8101174A02EB810262619F
:10132000E16A01EB8101144A52F82110491CE26A7A
:1013300002EB8202104B43F8221000F043FD0B48F1
:10134000006868B108480068C06AE16A884207D24C
:101350004FF0805009490860BFF34F8FBFF36F8F84
:1013600010BD0000740000206400002080000020F8
:10137000900000207C000020C02D012004ED00E042
:1013800010B500F0F5FC10480068D0B90F4800F027
:10139000B9FC0F4800F0B6FC0C480E4908600C4838
:1013A0000D49086000220C210A2001F04FF806497F
:1013B00008600846006820B108A10348006800F0F2
:1013C00079FD00F0FFFC10BDAC000020882E01204C
:1013D0009C2E0120A4000020A8000020546D725112
:1013E0000000000010B516E000F0C2FC0C48C06818
:1013F000C468201D00F072FC0A480068401E0949BC
:10140000086009480068401E0749086000F0DAFCDF
:10141000204600F020F8044800680028E4D110BD00
:10142000602E0120740000207000002070B504467A
:101430000D46206C70B1216CE0680144E160D4E994
:101440000210884201D32168E1602846226CE168DD
:10145000FEF76BFF70BD10B50446206B00F0D0FCAA
:10146000204600F0CDFC10BD0146084A1268126803
:101470000AB9012200E000220A600A6822B9034A80
:101480001268D268106800E000207047A4000020B5
:1014900030B54FF49633154800F007042CB1C01D49
:1014A00020F00700114C041B1B1B0246104C22604D
:1014B00000240F4D6C60D018083820F007000D4C48
:1014C000206000240B4D2D686C600A4D2D682C6047
:1014D0001146441A4C60074C24680C60064D4C6859
:1014E0002C60064D4C682C6030BD0000800100204F
:1014F0003C000020440000204C0000204800002058
:1015000000BFFFF76FFF064800680128F9D94FF0C8
:10151000805004490860BFF34F8FBFF36F8FF0E72F
:10152000C02D012004ED00E02DE9F04106460D46F6
:1015300017469846069C0DB9246000E02760E663D4
:1015400025640121204600F0B5FF84F84C80BDE8F9
:10155000F0812DE9F05F82460F4690469B460A9E39
:101560000C9C4FEA8801A522206BFEF723FFA8F10F
:101570000100216B01EB800929F0070909F0070040
:1015800008B9012000E0002050B900BF502080F3CE
:101590001188BFF34F8FBFF36F8F00BF00BFFEE70F
:1015A0007FB1002507E0795D04F134004155785D95
:1015B00000B902E06D1C0A2DF5D300BF00213D20CB
:1015C0000155052E01D2012000E0002050B900BFD6
:1015D000502080F31188BFF34F8FBFF36F8F00BF90
:1015E00000BFFEE7052E00D30426E662A664201D98
:1015F00000F095FB04F1180000F091FB2461C6F1A6
:101600000500A06164625A465146484600F0FAFA65
:1016100020600B9808B10B980460BDE8F09F0000B3
:1016200010B5002407E004EB84010F4A02EB8100AF
:1016300000F068FB641C052CF5D30C4800F062FB3D
:101640000B4800F05FFB0B4800F05CFB0A4800F021
:1016500059FB0A4800F056FB044809490860044851
:101660000849086010BD0000C02D0120242E012073
:10167000382E01204C2E0120602E0120742E0120D6
:10168000680000206C00002010B50146164800E0FC
:10169000006803688B42FBD30246436813448B42C5
:1016A00004D143684C682344436001460A464B68B2
:1016B00013440468A34211D10C4C03682468A3426C
:1016C00008D04B680468646823444B6003681B6857
:1016D0000B6005E0054B1B680B6001E003680B60C5
:1016E000884200D0016010BD3C0000204400002072
:1016F0002DE9F04104460D4616461F464FF00008FE
:1017000065602461B5420CD8F01BA169884202D300
:101710004FF0010811E0211D0948006800F002FBAC
:101720000BE0BE4204D2BD4202D34FF0010804E0F8
:10173000211D0448006800F0F5FA4046BDE8F0813C
:10174000A8000020A400002070B5054600F010FBA2
:10175000A86B08B9012400E0002400F033FB204608
:1017600070BD000070B505460E460E480068C068A2
:10177000C468201D00F0B2FA94F8280000F00400BC
:1017800028B132462946204600F0D6F805E094F804
:10179000280000F0FE0084F828002046216A8847CF
:1017A00070BD0000A40000207FB57FE001980028F4
:1017B0007CDB039C606908B9012000E0002010B9BF
:1017C000201D00F08BFA684600F0E2F8054601980B
:1017D0000A2869D2DFE800F06805072E36580608A7
:1017E0002F3700BF00BF00BF94F8280040F0010071
:1017F00084F828000298A269811803462A462046E8
:10180000FFF776FFA8B194F8280000F0040038B183
:101810000298A26981182A46204600F08DF805E05A
:1018200094F8280000F0FE0084F828002046216A81
:1018300088473AE000BF94F8280000F0FE0084F8E2
:10184000280032E000BF94F8280040F0010084F83E
:1018500028000298A061A06908B1012000E00020E2
:1018600050B900BF502080F31188BFF34F8FBFF3F2
:101870006F8F00BF00BFFEE7A06941192B462A46C3
:101880002046FFF735FF10E094F8280000F0020032
:1018900018B9204600F0B4FA05E094F8280000F0EA
:1018A000FE0084F8280000E000BF00BF002201A96C
:1018B0000348006800F06CFE00287FF477AF7FBD1E
:1018C000AC000020F8B505460C4600F0A3FC6846C5
:1018D00000F05EF80646009820BB44B9B54206D831
:1018E00001F00AF931462846FFF73CFF1CE03CB105
:1018F0000E480068006808B9012000E00020044696
:10190000A91B22460A48006800F004FB01F0F4F825
:1019100050B94FF0805007490860BFF34F8FBFF3B5
:101920006F8F01E001F0E8F8F8BD0000A80000208A
:10193000AC00002004ED00E070B504460D461646EC
:1019400004E0A06905442046216A8847A06941193E
:101950002B4632462046FFF7CBFE0028F1D170BD62
:1019600009480068006808B9012000E0002020B1A3
:101970004FF0FF300549086005E003480068C06883
:101980000068024908607047680000209400002049
:1019900070B5044600F03CFF0546074800688542E4
:1019A00004D200F00BF80120206001E0002020604C
:1019B00001480560284670BDB400002070B508E0FD
:1019C0000D480068C06804684FF0FF312046FFF7FB
:1019D000C9FE09480068006808B9012000E000203D
:1019E0000028EDD0044805680448006802490860F2
:1019F0000248056070BD0000A4000020A80000207F
:101A00000E480068401C08B9012000E0002050B9D1
:101A100000BF502080F31188BFF34F8FBFF36F8F4B
:101A200000BF00BFFEE700BF502080F31188BFF366
:101A30004F8FBFF36F8F00BF00BFFEE7580000203D
:101A400008B500BF6846FFF70FFD04462046009921
:101A5000FFF738FFFFF7A8FEF4E770B5044600F083
:101A600087F994F9455010E0606A08B9012000E058
:101A7000002038B904F1240000F0AEFF18B100F0E6
:101A800027FB00E003E0681E45B2002DECDC00BF40
:101A9000FF2084F8450000F095F900F069F994F909
:101AA000445010E0206908B9012000E0002048B946
:101AB00004F1100000F090FF08B100F009FB681E6F
:101AC00045B200E001E0002DECDC00BFFF2084F80F
:101AD000440000F077F970BD2DE9F04705464FF05E
:101AE000000900F097FB4248006808B9FFF7D0FCF6
:101AF00075B105F00700C0F11008C8F1FF30A84229
:101B000001D2012000E0002008B9454400E0002592
:101B1000012000EBE570002853D0002D51D035484E
:101B2000006885424DD8344E3046046801E02646B0
:101B300024686068A84202D220680028F7D12C48A7
:101B4000006884423DD0306800F1080920683060A8
:101B50006068401B102819D9671907F0070008B9F9
:101B6000012000E0002050B900BF502080F3118810
:101B7000BFF34F8FBFF36F8F00BF00BFFEE76068FA
:101B8000401B786065603846FFF77EFD1949606844
:101B90000968081A17490860084600681749096863
:101BA000884203D21348006814490860606840F016
:101BB000004060600020206011480068401C10490F
:101BC000086000F099FF09F0070008B9012000E063
:101BD000002050B900BF502080F31188BFF34F8F11
:101BE000BFF36F8F00BF00BFFEE74846BDE8F08738
:101BF00044000020480000203C0000204C00002051
:101C000050000020001F4FF080730360001F21F080
:101C100001030360001F054B036014380260001FBE
:101C20006FF002030360203870470000011A0008BB
:101C300010B588B0044601210846FEF779FE01215F
:101C40001020FEF795FE072209212248FEF748FDE5
:101C500007220A211F48FEF743FD4FF4C06006909B
:101C600002208DF81C008DF81D0000208DF81E004C
:101C700001208DF81F0006A91648FEF7E9FC029422
:101C80000020ADF80C00ADF80E00ADF81000ADF876
:101C900014000C20ADF8120002A90F48FFF78CF9D0
:101CA00001210D48FFF72CF9012240F225510A4885
:101CB000FFF75CF925208DF8040003208DF805005E
:101CC0008DF8060001208DF8070001A8FEF7EAFD57
:101CD00008B010BD000002400010014001460A6932
:101CE000D1E901309860D1E9010358605068884219
:101CF00001D188685060002008611068401E1060A3
:101D00001068704700F1080141604FF0FF318160B9
:101D100000F10801C16001610021016070470021EC
:101D20000161704710B502460B685C1C0CB9106964
:101D300007E002F1080000E04068446824689C4223
:101D4000FAD944684C604C68A160886041600A61BF
:101D50001468641C146010BD42684A6093688B600C
:101D6000936859609160086103685B1C0360704769
:101D700000BF502080F31188BFF34F8FBFF36F8FE8
:101D800000BF0E480068401C0C4908600846006807
:101D9000012812D10A480068C0B208B9012000E049
:101DA000002050B900BF502080F31188BFF34F8F3F
:101DB000BFF36F8F00BF00BFFEE7704758000020E1
:101DC00004ED00E00D48006850B900BF502080F3DA
:101DD0001188BFF34F8FBFF36F8F00BF00BFFEE7C7
:101DE00006480068401E054908600846006820B99A
:101DF000002080F3118800BF00BF7047580000200A
:101E000070B506463546002E3BD0083D2C4660682E
:101E1000C00F50B900BF502080F31188BFF34F8F1F
:101E2000BFF36F8F00BF00BFFEE7206808B9012035
:101E300000E0002050B900BF502080F31188BFF3AC
:101E40004F8FBFF36F8F00BF00BFFEE76068C00F0A
:101E5000B8B12068A8B9606820F00040606000F068
:101E6000D9F90849606809680844064908602046AD
:101E7000FFF70AFC04480068401C0349086000F0B2
:101E80003BFE70BD480000205400002000204FF0B1
:101E9000E02108618861064800684FF47A71B0FB60
:101EA000F1F0401E4FF0E0214861072008617047C3
:101EB0000800002030B502460B46002152B900BF91
:101EC000502484F31188BFF34F8FBFF36F8F00BF8F
:101ED00000BFFEE7BBB1002012E00D4C04EBC004D4
:101EE0006468944203D10A4C04EBC0010AE031B9A2
:101EF000074C54F8304014B9054C04EBC001401CA9
:101F00000828EAD300BF09B10B604A6030BD000069
:101F1000802D01202DE9F04105460E4617462C463E
:101F2000FFF726FF94F94400401C10B9002084F804
:101F3000440094F94500401C10B9002084F8450085
:101F4000FFF740FFA06B28B93A46314604F1240060
:101F500000F0E0F82046FFF780FDBDE8F0810000CA
:101F600070B504460025D4B11248006808B90120B4
:101F700000E0002050B900BF502080F31188BFF36B
:101F80004F8FBFF36F8F00BF00BFFEE700F042F935
:101F900000212046FFF71EF900F0AEFD05463DB9D1
:101FA0004FF0805004490860BFF34F8FBFF36F8F2D
:101FB00070BD0000A000002004ED00E070B50546F3
:101FC000FFF7D6FE15B93248006800E028460446FF
:101FD000201DFFF783FE78B9E06A00EB80002D49F1
:101FE00051F8200040B994F82C10012088402A496B
:101FF0000968814328480160A06A18B104F11800FB
:10200000FFF76CFE25480068401C24490860204802
:102010000068844209D1211D2148FFF79DFE214817
:102020000068401C1F49086006E01F480068401E09
:102030001D490860FFF794FCFFF7C4FE14480068D0
:10204000844202D02046FFF706FA18480068E8B13B
:102050000F480068844219D11548006808B901206A
:1020600000E0002050B900BF502080F31188BFF37A
:102070004F8FBFF36F8F00BF00BFFEE74FF0805060
:102080000C490860BFF34F8FBFF36F8F70BD000026
:1020900064000020C02D01207C0000209000002062
:1020A000602E0120700000207400002080000020BD
:1020B000A000002004ED00E0034909680160034925
:1020C00009684160704700008C0000207800002003
:1020D00001200149086070478800002070B504465F
:1020E0000D4654B900BF502080F31188BFF34F8FC5
:1020F000BFF36F8F00BF00BFFEE7054801681831CE
:102100002046FFF70FFE01212846FFF763F870BD58
:102110006400002070B504460E46154654B900BF51
:10212000502080F31188BFF34F8FBFF36F8F00BF34
:1021300000BFFEE760680F490968C8610D49826801
:1021400009680A620B4909681831826851600949B7
:10215000096818318160074909688C622168491C47
:1021600021600DB14FF0FF3629463046FFF732F8B7
:1021700070BD0000640000201CB51E4800210B4605
:102180008222CDE900101CA11D4800F0FDFA044692
:10219000012C02D100F06CFD0446012C15D100BFCA
:1021A000502080F31188BFF34F8FBFF36F8F00BFB4
:1021B0004FF0FF30134908600120134908600020E8
:1021C0001249086000F074F810E0601C08B10120AA
:1021D00000E0002050B900BF502080F31188BFF309
:1021E0004F8FBFF36F8F00BF00BFFEE70848006846
:1021F0001CBD00009800002049444C450000000030
:1022000001150008940000208000002078000020C4
:102210009C00002002480068401C0149086070478B
:10222000A00000201D48006818B101201C4908606A
:1022300032E000201A4908601A480068B0FA80F0BD
:10224000C0F11F0101EB8100174A52F8200008B1CC
:10225000012000E0002050B900BF502080F3118819
:10226000BFF34F8FBFF36F8F00BF00BFFEE701EBDF
:1022700081020D4B03EB820042685268426000F11C
:1022800008024368934202D1426852684260426841
:10229000D268064B1A6000BF70470000A000002003
:1022A000880000207C000020C02D01206400002058
:1022B0001CB5524800685249884201D0012000E014
:1022C000002050B900BF502080F31188BFF34F8F1A
:1022D000BFF36F8F00BF00BFFEE748480068484962
:1022E000491E884201D0012000E0002050B900BF03
:1022F000502080F31188BFF34F8FBFF36F8F00BF63
:1023000000BFFEE73F49084600780190FF200A46DB
:1023100010700846007800909DF8000000F0F00072
:102320009DF80020904201D1012000E0002050B92A
:1023300000BF502080F31188BFF34F8FBFF36F8F22
:1023400000BF00BFFEE79DF8000000F050002E4ADD
:10235000107007202D4A106009E02C480068401ECC
:102360002A4A10609DF800004006000E00909DF87B
:10237000000000F080008028EFD024480068C0F101
:102380000700042801D1012000E0002050B900BF5F
:10239000502080F31188BFF34F8FBFF36F8F00BFC2
:1023A00000BFFEE7194800680002184A1060104696
:1023B000008800F4E0601060124A019810700F4825
:1023C0002030006840F470000C4920310860084655
:1023D000006840F070400860FFF758FD00200C498D
:1023E0000860FDF745FF0B48006840F04040094990
:1023F0000860FDF729FF00201CBD000000ED00E093
:1024000071C20F4100E400E05C0000206000002089
:102410005800002034EF00E010B500BF502080F3DA
:102420001188BFF34F8FBFF36F8F00BF00F0F6F935
:1024300018B14FF080500449086000BF002080F3BD
:10244000118800BF10BD000004ED00E02DE9F84345
:1024500005460E4617460024E5B1601EB0FBF5F0B8
:10246000B04217D305FB06F010F1510F12D805FB4F
:1024700006F808F15000FFF72FFB0446B4B1A1465F
:1024800009F150093B464A46314628460094FFF779
:102490004BF80BE054B900BF502080F31188BFF314
:1024A0004F8FBFF36F8F00BF00BFFEE72046BDE830
:1024B000F88300002DE9F04105460E4601272C4621
:1024C00054B900BF502080F31188BFF34F8FBFF382
:1024D0006F8F00BF00BFFEE7002C42D0E06B0028EA
:1024E0003FD04FF0FF31E06BB1FBF0F0216C884240
:1024F00037D3FFF73DFCD4E90F12206801FB02003F
:10250000A0600020A06320686060E06B401E226C29
:10251000216800FB0211E160FF2084F8440084F888
:1025200045009EB9206908B9012000E00020A8B943
:1025300004F1100000F050FA80B14FF080501349C0
:102540000860BFF34F8FBFF36F8F07E004F11000F7
:10255000FFF7D8FB04F12400FFF7D4FBFFF732FCB0
:1025600000E000270FB1012000E0002050B900BFBB
:10257000502080F31188BFF34F8FBFF36F8F00BFE0
:1025800000BFFEE73846BDE8F081000004ED00E042
:102590002DE9F74183B005460E464FF000082C4662
:1025A00054B900BF502080F31188BFF34F8FBFF3A1
:1025B0006F8F00BF00BFFEE70EB9206C08B9012085
:1025C00000E0002050B900BF502080F31188BFF315
:1025D0004F8FBFF36F8F00BF00BFFEE700F008F919
:1025E00008B9059808B9012000E0002050B900BFE3
:1025F000502080F31188BFF34F8FBFF36F8F00BF60
:1026000000BFFEE700BFFFF7B3FBA76BF7B1314692
:102610002046FEF70BFF781EA063206908B9012051
:1026200000E0002060B904F1100000F0D5F938B1E5
:102630004FF080502F490860BFF34F8FBFF36F8F6B
:10264000FFF7C0FB012006B0BDE8F081059818B97E
:10265000FFF7B8FB0020F6E7B8F1000F04D101A89E
:10266000FFF72AFD4FF00108FFF7ACFBFFF7D2FDA3
:10267000FFF77EFB94F94400401C10B9002084F859
:10268000440094F94500401C10B9002084F845002E
:10269000FFF798FB05A901A800F02EF8F0B9204635
:1026A000FFF752F8A0B104F124000599FFF716FDD9
:1026B0002046FFF7D2F900F01FFA0028A3D14FF00F
:1026C00080500C490860BFF34F8FBFF36F8F9AE7BC
:1026D0002046FFF7C2F900F00FFA94E72046FFF713
:1026E000BCF900F009FA2046FFF72EF800288AD03E
:1026F0000020A8E704ED00E070B505460C4655B98A
:1027000000BF502080F31188BFF34F8FBFF36F8F4E
:1027100000BF00BFFEE754B900BF502080F311880E
:10272000BFF34F8FBFF36F8F00BF00BFFEE7FFF710
:102730001FFB134802686868131A2068401C08B918
:10274000002619E00F4928680968884206D06868A1
:10275000904203D80126002020600DE020689842B6
:1027600007D92068C01A20602846FFF7A5FC00267C
:1027700002E0002020600126FFF724FB304670BDF8
:10278000780000208C0000202DE9FF4F85B08046A6
:1027900089461746DDE912ABB800FFF79DF90646FA
:1027A00076B15820FFF798F904462CB158212046FD
:1027B000FDF72AFE266304E03046FFF721FB00E028
:1027C00000247CB10020CDE900ABCDE902403A46BF
:1027D00049464046089BFEF7BCFE2046FEF75AFDE0
:1027E000012501E04FF0FF35284609B0BDE8F08F24
:1027F0000549096809B9012005E00449096809B9D2
:10280000022000E00020704780000020A00000208F
:102810000149086870470000780000202DE9F04168
:102820004FF000086148006800287DD160480068CA
:10283000451C5F48056015BB5E480068006808B924
:10284000012000E0002050B900BF502080F3118823
:10285000BFF34F8FBFF36F8F00BF00BFFEE7554838
:102860000768554800685349086053480760534853
:102870000068401C51490860FFF772F800BF5048DB
:102880000068854277D300BF4A480068006808B9ED
:10289000012000E0002020B14FF0FF3048490860DF
:1028A00068E044480068C068C4686668B54202D2FF
:1028B000434806605EE06069D4E902128A60D4E9A8
:1028C00002214A60211D42688A4201D1E1684160CB
:1028D000002262610168491E0160A06A98B1A06A85
:1028E000D4E907128A60D4E907214A6004F118018B
:1028F00042688A4201D1216A41600022A2620168D5
:10290000491E016000BF94F82C10012088402D4919
:10291000096808432B490860E16A01EB81012A4AF2
:1029200002EB8101486800E037E0A0608268E26065
:10293000211D826851608160E16A01EB8101224AB8
:1029400002EB81026261E16A01EB81011E4A52F8E9
:102950002110491CE26A02EB82021B4B43F8221051
:102960001A49E06A0968C96A88428DD94FF001089E
:102970008AE700E000BF15480068C06A00EB8000ED
:10298000114951F82000012801D94FF001081048E1
:10299000006808B14FF0010804E00E480068401CD0
:1029A0000C4908604046BDE8F0810000A00000200E
:1029B00078000020680000206C0000208C000020BF
:1029C000940000207C000020C02D01206400002025
:1029D000880000208400002070B50346D868C168D4
:1029E00051B900BF502080F31188BFF34F8FBFF360
:1029F0006F8F00BF00BFFEE7886AD1E90745A56079
:102A0000D1E90754656001F118044568A54201D178
:102A10000C6A446000258D620468641E04603048BE
:102A2000006800283DD14869D1E90245A560D1E997
:102A3000025465600C1D4568A54201D1CC68446014
:102A400000254D610468641E046091F82C4001204B
:102A5000A040244C24682043224C2060CC6A04EB24
:102A60008404214D05EB8404606888608568CD602E
:102A70000C1D85686C608460CC6A04EB84041A4D7C
:102A800005EB84054D61CC6A04EB8404164D55F8C2
:102A90002440641CCD6A05EB8505134E46F825409D
:102AA00010E0124C6068C86185680D6201F118047D
:102AB00085686C6084600D4D8D622C462468641CB2
:102AC0002C6000BF0A4CC86A2468E46AA04204D99A
:102AD00001220120074C206000E00022104670BD5A
:102AE000A00000207C000020C02D01204C2E0120E1
:102AF000640000208800002070B5002400265348A0
:102B0000006850B900BF502080F31188BFF34F8F89
:102B1000BFF36F8F00BF00BFFEE7FFF729F94B48F7
:102B20000068401E494908600846006800287DD1B9
:102B300047480068002879D05BE04648C068C46810
:102B4000A06AD4E907128A60D4E907214A6004F137
:102B5000180142688A4201D1216A41600022A262C2
:102B60000168491E01606069D4E902128A60D4E9F3
:102B700002214A60211D42688A4201D1E168416018
:102B8000002262610168491E016094F82C10012046
:102B900088403149096808432F490860E16A01EB20
:102BA00081012E4A02EB81014868A0608268E260E0
:102BB000211D826851608160E16A01EB8101274A31
:102BC00002EB81026261E16A01EB8101234A52F862
:102BD0002110491CE26A02EB8202204B43F82210CA
:102BE0001F49E06A0968C96A884202D301201D4969
:102BF00008601848006808B9012000E0002000289B
:102C00009BD00CB1FEF7ACFE1748056865B100BF5C
:102C1000FFF704FE10B10120124908606D1E002D5F
:102C2000F6D10020104908600E4800E009E0006875
:102C300038B1012630070D490860BFF34F8FBFF34D
:102C40006F8FFFF7BFF8304670BD0000A000002076
:102C5000740000204C2E01207C000020C02D01209B
:102C600064000020880000208400002004ED00E0C3
:102C70001CB50024FEF784FB0E48006858B10E48CE
:102C8000022100234FF48272CDE900100BA10D4800
:102C9000FFF77AFD044654B900BF502080F3118835
:102CA000BFF34F8FBFF36F8F00BF00BFFEE720461B
:102CB0001CBD0000AC000020B0000020546D72204C
:102CC00053766300411A00084FF04070E1EE100A9D
:102CD00070470000F42C000800000020B80000003D
:102CE000C4010008AC2D0008B800002058340100D1
:102CF000E00100080000000000000000007A030A64
:102D0000000000000000000001020304060708099B
:102D100001000000000000000000000000000000B2
:102D20000000010203040102030406070809000071
:102D30000000000000000000000000000000000093
:102D4000000000000000000000000000AAAAAAAADB
:102D50000000000000000000000000000000000073
:102D60000000000000000000000000000000000063
:102D70000000000000000000000000000000000053
:102D80000000000000000000000000000000000043
:102D9000040000000000000000000000000000002F
:0C2DA00000000000000000000000000027
:040000050800018965
:00000001FF
