:020000040800F2
:1000000018350120E9020008ED080008550700082E
:10001000E908000829050008FB0E000800000000A0
:10002000000000000000000000000000290200089D
:100030002D0500080000000085020008650C00087E
:100040000303000803030008030300080303000878
:100050000303000803030008030300080303000868
:100060000303000803030008310500080303000828
:100070000303000803030008030300080303000848
:100080000303000803030008030300080303000838
:100090000303000803030008030300080303000828
:1000A0000303000803030008030300080303000818
:1000B0000303000803030008030300080303000808
:1000C00003030008030300080303000803030008F8
:1000D00003030008DD0C0008030300080303000805
:1000E00003030008030300080303000803030008D8
:1000F00003030008030300080303000803030008C8
:1001000003030008030300080303000803030008B7
:1001100003030008030300080303000803030008A7
:100120000303000803030008030300080303000897
:100130000303000803030008030300080303000887
:100140000303000803030008030300080303000877
:100150000303000803030008030300080303000867
:100160000303000803030008030300080303000857
:100170000303000803030008030300080303000847
:10018000030300080303000800F002F800F03CF845
:100190000AA090E8000C82448344AAF10107DA45E2
:1001A00001D100F031F8AFF2090EBAE80F0013F0F8
:1001B000010F18BFFB1A43F001031847282C000059
:1001C000482C0000103A24BF78C878C1FAD85207EA
:1001D00024BF30C830C144BF04680C6070470000C1
:1001E0000023002400250026103A28BF78C1FBD840
:1001F000520728BF30C148BF0B6070471FB502F0DF
:10020000EBFD1FBD10B510BD00F05BF91146FFF707
:10021000F5FF00F0DDFE00F079F903B4FFF7F2FF1F
:1002200003BC00F06CFE00002C4B19680868B0E8B5
:10023000F04F80F30988BFF36F8F4FF0000080F319
:10024000118870470000000008480068006880F3CB
:1002500008884FF0000080F3148862B661B6BFF3DF
:100260004F8FBFF36F8F00DF00BF00BF08ED00E0CE
:10027000DFF80C00016841F470010160704700BFB5
:1002800088ED00E0EFF30980BFF36F8F134B1A681E
:100290001EF0100F08BF20ED108A20E9F04F10600B
:1002A00009B44FF0500080F31188BFF34F8FBFF3B4
:1002B0006F8F01F0C5FF4FF0000080F3118809BC7B
:1002C00019680868B0E8F04F1EF0100F08BFB0ECD6
:1002D000108A80F30988BFF36F8F70476800002091
:1002E000EFF3058070470000094880470948004740
:1002F000FEE7FEE7FEE7FEE7FEE7FEE7FEE7FEE7D6
:10030000FEE7FEE704480549054A064B7047000032
:10031000750C000889010008182F012018350120EC
:1003200018310120183101207047032A40F2308033
:1003300010F0030C00F0158011F8013BBCF1020F26
:10034000624498BF11F801CB00F8013B38BF11F8A7
:10035000013BA2F1040298BF00F801CB38BF00F8BE
:10036000013B11F0030300F07A80083AC0F00880E6
:1003700051F8043B083A51F804CBA0E80810F5E71F
:10038000121D5CBF51F8043B40F8043BAFF3008002
:10039000D20724BF11F8013B11F801CB48BF11F877
:1003A000012B24BF00F8013B00F801CB48BF00F847
:1003B000012B704702F0FF0343EA032242EA0242A4
:1003C00000F002B84FF000020429C0F0128010F0D3
:1003D000030C00F01B80CCF1040CBCF1020F18BF21
:1003E00000F8012BA8BF20F8022BA1EB0C0100F0B4
:1003F0000DB85FEAC17C24BF00F8012B00F8012B87
:1004000048BF00F8012B70474FF0000200B51346BB
:1004100094469646203922BFA0E80C50A0E80C5024
:10042000B1F12001BFF4F7AF090728BFA0E80C50D5
:1004300048BF0CC05DF804EB890028BF40F8042BCE
:1004400008BF704748BF20F8022B11F0804F18BF3B
:1004500000F8012B7047704770477047704710B520
:10046000203AC0F00B80B1E81850203AA0E81850AC
:10047000B1E81850A0E81850BFF4F5AF5FEA027C6D
:1004800024BFB1E81850A0E8185044BF18C918C0DC
:10049000BDE810405FEA827C24BF51F8043B40F87D
:1004A000043B08BF7047D20728BF31F8023B48BF62
:1004B00011F8012B28BF20F8023B48BF00F8012BA0
:1004C0007047754600F02CF8AE4605006946534665
:1004D00020F00700854618B020B5FFF713FFBDE8F0
:1004E00020404FF000064FF000074FF000084FF09B
:1004F000000B21F00701AC46ACE8C009ACE8C0092C
:10050000ACE8C009ACE8C0098D46704710B5044698
:10051000AFF300802046BDE81040FFF77EBE00002C
:1005200000487047B42E012000BFFEE7704700006E
:1005300010B510210C4800F002F980B90B48006892
:1005400002F0A4FB0446012C09D100BF34B100071E
:1005500007490860BFF34F8FBFF36F8F00BF1020B4
:1005600000F032F810BD000000100240040000202E
:1005700004ED00E00EB500F0EFF80121880300F073
:100580000DFA0421084600F08DFA1020009000209A
:100590008DF804000C208DF8050001208DF8060070
:1005A000684600F017F80A208DF8080006208DF83C
:1005B000090000208DF80A0001208DF80B0002A828
:1005C00000F096F90EBD0000014908607047000078
:1005D000143C0140002123498279002A3AD00A467E
:1005E000126803689A430B461A600A1D1268036872
:1005F0009A430B1D1A60027911440A6803681A4372
:100600000A60184A0832126803689A43154B083387
:100610001A601A1D126803689A43124B0C331A6051
:100620004279102A0ED11A1F126803681A430D4B23
:1006300008331A601A1D126803681A43094B0C33F9
:100640001A600DE00749427911440A6803681A43A9
:100650000A6005E0027911440A6803689A430A6057
:1006600070470000003C0140F0B50A46002100231D
:10067000002400BF3DE0012505FA01F3156805EAF5
:1006800003049C4234D105684F000326BE40B543A5
:10069000056015794E00B54006683543056015794B
:1006A000012D02D01579022D16D185684F00032641
:1006B000BE40B543856055794E00B54086683543E8
:1006C0008560456801268E40B5434560456896794A
:1006D0008E40B6B235434560C5684F000326BE4024
:1006E000B543C560D5794E00B540C6683543C56091
:1006F000491C1029BFD3F0BDF0B5002300244D07DD
:10070000ED0E02FA05F3CE1000F1200555F8265043
:100710004E07F70E0F26BE40B543CF1000F120065E
:1007200046F82750CE1000F1200555F8265045EA2E
:100730000304CE1000F1200545F82640F0BD024626
:10074000002013690B400BB1012000E0002070472E
:100750000183704700BFFEE71CB50121112000F0A6
:100760000DF91C20009000208DF8040003208DF866
:10077000050001208DF8070069460648FFF774FF61
:100780000120009002208DF8070069460248FFF71B
:100790006BFF1CBD001002400000024010B5044673
:1007A00014B101202C4908702B480078002837D05C
:1007B00010212A48FFF7C3FF78B108212748FFF727
:1007C000BEFF50B104212548FFF7B9FF28B1012130
:1007D0002348FFF7B4FF012822D10A2000F0B4FB20
:1007E00000201D49087010211C48FFF7A8FF08B918
:1007F000012010BD08211948FFF7A1FF08B9022008
:10080000F7E704211548FFF79AFF08B90320F0E73E
:1008100001211348FFF793FF01281BD10420E8E7CB
:1008200010210E48FFF78BFF012813D108210B4838
:10083000FFF785FF01280DD104210848FFF77FFF4E
:10084000012807D101210648FFF779FF10B90120DF
:10085000014908700020CCE7200000200010024071
:10086000000002400BE00020FFF798FF022806D1AD
:100870000348006801F05CFC012002490860F2E7CF
:1008800004000020A48242421CB50121202000F077
:1008900075F84FF4C060009001208DF8040000202E
:1008A0008DF8060003208DF8050001208DF8070063
:1008B00069460448FFF7D8FE4FF4C0610148FFF7CE
:1008C00047FF1CBD0014024009E005480068C04312
:1008D0000449C1F8A4024FF4FA7001F0CFFAF4E72A
:1008E000A48242420080424200BFFEE770470000FF
:1008F00070B5002100230F22C4781CB3174C246864
:1009000004F4E064C4F5E064C4F30721C1F1040415
:10091000E3B20A4144789C40E1B284781440214318
:100920000C07210E0E4C05786155047804F01F0564
:100930000124AC4005786D11AD0005F1E025C5F846
:10094000004109E0047804F01F050124AC40054D86
:100950000678761145F8264070BD00000CED00E0E9
:1009600000E400E080E100E002490143024A116036
:10097000704700000000FA050CED00E029B1064ABE
:1009800012680243044B1A6004E0034A126882436F
:10099000014B1A60704700003038024029B1064A06
:1009A00012680243044B1A6004E0034A126882434F
:1009B000014B1A607047000044380240F0B5002136
:1009C00000220024022500260223324F3F6807F050
:1009D0000C0121B1042905D0082937D105E02E4F9B
:1009E000076036E02D4F076033E02A4F3F1F3F6816
:1009F000C7F38056274F3F1F3F6807F03F036EB194
:100A0000264FB7FBF3F7DFF88CC0ACF1040CDCF831
:100A100000C0CCF3881C07FB0CF40CE01E4FB7FBA6
:100A2000F3F7DFF870C0ACF1040CDCF800C0CCF3D5
:100A3000881C07FB0CF4174F3F1F3F68C7F30147A3
:100A40007F1C7D00B4FBF5F7076002E0124F0760E2
:100A500000BF00BF0F4F3F6807F0F0010909104FBA
:100A60007A5C0768D74047600A4F3F6807F4E05157
:100A7000890A0B4F7A5C4768D7408760054F3F680B
:100A800007F46041490B064F7A5C4768D740C7605E
:100A9000F0BD0000083802400024F40000127A0083
:100AA0002E00002030B500228B071C0F0F2303FA05
:100AB00004F20B4B8C1053F824309343084C8D10E8
:100AC00044F8253023468C1053F824308C07240F2B
:100AD00000FA04F42343024C8D1044F8253030BD55
:100AE000083801400CB5002001900090344800689F
:100AF00040F480303249086000BF3148006800F49B
:100B0000003000900198401C0190009818B901989D
:100B1000B0F5A04FF1D12A48006800F4003010B1C0
:100B20000120009001E0002000900098012846D1AB
:100B300023484030006840F080502149403108602F
:100B40002048006840F440401E4908601C480830B6
:100B500000681B49083108600846006840F40040FE
:100B600008600846006840F4A05008601648091F55
:100B70000860081F006840F08070091F086000BF0F
:100B80000F48006800F000700028F9D040F20570AE
:100B90000E4908600A480830006820F00300084940
:100BA000083108600846006840F00200086000BF95
:100BB00003480830006800F00C000828F8D10CBD8C
:100BC000003802400070004008544007003C0240DA
:100BD0001CB5044601F01EF80D4803210023322203
:100BE000CDE900100BA10E4801F0DCFD0D480221FB
:100BF00000233222CDE900100BA10E4801F0D2FDF6
:100C00000D48006801F068F901F02EF81CBD0000E5
:100C1000040000204C45445F5461736B00000000E9
:100C2000C9080008080000204B45595F5461736BE8
:100C3000000000006508000800000020042808D11A
:100C40004FF0E021096941F004014FF0E022116109
:100C500007E04FF0E021096921F004014FF0E022A4
:100C60001161704710B501F0D1FD012801D001F0EC
:100C7000E1FB10BD10B51548006840F47000134941
:100C800008601348006840F0010011490860002026
:100C90000F49083108600E4800680E4908400C49A9
:100CA00008600D48091D0860081F006820F48020B6
:100CB000091F0860002006490C310860FFF712FF89
:100CC0004FF0006001498039086010BD88ED00E0F8
:100CD00000380240FFFFF6FE1030002410B540F24D
:100CE00025511D4800F04AF810B31B4800F000F9E8
:100CF000C4B21A48008800F40040C8B917480088F8
:100D000000F4804060B10A2C03D000201349088011
:100D100020E01248008840F400401049088019E0A3
:100D20000D2C06D10D48008840F480400B49088006
:100D300010E00A480088C0F30D0009490C54074828
:100D40000088401C0549088008460088C72801DD46
:100D50000020088010BD0000001001402C00002081
:100D6000BC00002021B1828942F40052828104E05B
:100D700082894DF6FF731A408281704770B5024632
:100D8000002400230025002040F66A16B14200D15D
:100D900000BFC1F3421501F01F03012606FA03F359
:100DA000012D02D19689334006E0022D02D1168A28
:100DB000334001E0968A33400C12012606FA04F40F
:100DC0001688344013B10CB1012000E0002070BD42
:100DD000F0B50346002400260025002040F66A17DF
:100DE000B94200D100BF1846C1F3421401F01F06FA
:100DF000012707FA06F5012C01D10C3004E0022C82
:100E000001D1103000E014301AB107682F43076099
:100E100002E00768AF430760F0BD00002DE9FF471F
:100E200005460E460024A14600BFA046B08900B189
:100E300000BF2C8A24F44054F08804432C82AC89EF
:100E400041F20C608443B0883189084371890843BA
:100E50000443AC81AC8A24F44074B0890443AC826E
:100E60006846FFF7ABFD2048854202D01F48854207
:100E700002D1DDF80C9001E0DDF80890A88900F4BB
:100E8000004040B109EBC90000EB0910316849008E
:100E9000B0FBF1F707E009EBC90000EB091031687E
:100EA0008900B0FBF1F76420B7FBF0F004012009E2
:100EB000642101FB1078A88900F4004040B1322081
:100EC00000EBC800B0FBF1F000F00700044308E0BD
:100ED000322000EB08106421B0FBF1F000F00F00AD
:100EE00004432C81BDE8FF8700100140001401403D
:100EF00001468888C0F30800704700BFFEE700BFC6
:100F00007047000070B504460420FFF797FE0C48B8
:100F1000047025464FF47A70454301200949088042
:100F20004FF0E020006940F002004FF0E02108613E
:100F300008464561006940F00100086170BD00008D
:100F4000220000202400002070B5044601F05EFC61
:100F5000012810D00B480088844206D30948008835
:100F6000B4FBF0F5284600F089FF06480088B4FB82
:100F7000F0F100FB11444FF47A7104FB01F000F032
:100F800003F870BD2400002070B5034600224FF026
:100F9000E02675690D4E367803FB06F44FF0E02627
:100FA000B16910E04FF0E026B06988420BD088426A
:100FB00002D20E1A324402E02E1A0E443244014686
:100FC000A24200D300E0EDE700BF70BD2200002088
:100FD0001CB54FF44070FFF7C7FCA820FFF792FF45
:100FE0004FF4E13000F076FDFFF74EFCFFF7C2FA58
:100FF0000648012100238022CDE9001004A1074802
:1010000001F0D0FB01F046F800201CBD00000020DC
:1010100053746172745F5461736B0000D10B0008EC
:101020002DE9F04105460E46264807682648006827
:10103000001D00F0A5FD50B92348006890F82C1061
:101040000120884021490968814320480160681CCB
:10105000D8B9D6B11E4948681B49096888601A4941
:1010600082680968CA6018490968091D8268516068
:1010700015490968091D8160154A134909684A61C3
:1010800011460968491C11601AE07C190E48006875
:101090004460BC4207D20C480168091D0D48006835
:1010A00000F092FD0CE008480168091D0A4800683C
:1010B00000F08AFD09480068844201D207480460B4
:1010C000BDE8F0817C000020680000208000002046
:1010D000782E0120700000206C0000209800002075
:1010E00010B5044600F096FD31480068401C3049B8
:1010F00008603048006840B92E480460084600681F
:1011000001280DD100F0B2F90AE02B48006838B987
:1011100028480068C06AE16A884201D8254804600E
:1011200026480068401C254908600846006820647D
:1011300094F82C100120884021490968084320496F
:101140000860E16A01EB81011E4A02EB81014868F7
:10115000A0608268E260211D826851608160E16A5E
:1011600001EB8101174A02EB81026261E16A01EB46
:101170008101144A52F82110491CE26A02EB8202F2
:10118000104B43F8221000F06FFD0B48006868B167
:1011900008480068C06AE16A884207D24FF0805070
:1011A00009490860BFF34F8FBFF36F8F10BD000078
:1011B00078000020680000208400002094000020B7
:1011C00080000020C42D012004ED00E010B500F0E7
:1011D00021FD10480068D0B90F4800F0E5FC0F4829
:1011E00000F0E2FC0C480E4908600C480D4908600C
:1011F00000220C210A2001F037F906490860084650
:10120000006820B108A10348006800F0E1FD00F08B
:101210002BFD10BDB00000208C2E0120A02E01203F
:10122000A8000020AC000020546D725100000000A6
:1012300010B516E000F0EEFC0C48C068C468201D34
:1012400000F09EFC0A480068401E094908600948F1
:101250000068401E0749086000F006FD204600F0C7
:1012600020F8044800680028E4D110BD642E012055
:10127000780000207400002070B504460D46206CF4
:1012800070B1216CE0680144E160D4E90210884249
:1012900001D32168E1602846226CE168FFF745F838
:1012A00070BD10B50446206B00F0FCFC204600F039
:1012B000F9FC10BD0146084A126812680AB90122F9
:1012C00000E000220A600A6822B9034A1268D26864
:1012D000106800E000207047A800002030B54FF4EF
:1012E0009633154800F007042CB1C01D20F007000C
:1012F000114C041B1B1B0246104C226000240F4D96
:101300006C60D018083820F007000D4C20600024D5
:101310000B4D2D686C600A4D2D682C601146441AE7
:101320004C60074C24680C60064D4C682C60064DE0
:101330004C682C6030BD000084010020400000207B
:1013400048000020500000204C00002000BFFFF7A4
:101350006FFF064800680128F9D94FF08050044912
:101360000860BFF34F8FBFF36F8FF0E7C42D0120EC
:1013700004ED00E02DE9F04106460D46174698467B
:10138000069C0DB9246000E02760E6632564012116
:10139000204601F09DF884F84C80BDE8F0812DE9ED
:1013A000F05F82460F4690469B460A9E0C9C4FEA91
:1013B0008801A522206BFEF7FDFFA8F10100216B3B
:1013C00001EB800929F0070909F0070008B901209D
:1013D00000E0002050B900BF502080F31188BFF317
:1013E0004F8FBFF36F8F00BF00BFFEE77FB10025B7
:1013F00007E0795D04F134004155785D00B902E001
:101400006D1C0A2DF5D300BF00213D200155052E8E
:1014100001D2012000E0002050B900BF502080F32D
:101420001188BFF34F8FBFF36F8F00BF00BFFEE780
:10143000052E00D30426E662A664201D00F0C1FB41
:1014400004F1180000F0BDFB2461C6F10500A061A5
:1014500064625A465146484600F026FB20600B98CD
:1014600008B10B980460BDE8F09F000010B500249F
:1014700007E004EB84010F4A02EB810000F094FBCB
:10148000641C052CF5D30C4800F08EFB0B4800F0D3
:101490008BFB0B4800F088FB0A4800F085FB0A48EC
:1014A00000F082FB044809490860044808490860C4
:1014B00010BD0000C42D0120282E01203C2E01204B
:1014C000502E0120642E0120782E01206C00002077
:1014D0007000002010B50146164800E0006803685F
:1014E0008B42FBD30246436813448B4204D14368CA
:1014F0004C682344436001460A464B681344046821
:10150000A34211D10C4C03682468A34208D04B6855
:101510000468646823444B6003681B680B6005E043
:10152000054B1B680B6001E003680B60884200D02C
:10153000016010BD40000020480000202DE9F0416E
:1015400004460D4616461F464FF0000865602461AC
:10155000B5420CD8F01BA169884202D34FF00108B4
:1015600011E0211D0948006800F02EFB0BE0BE428F
:1015700004D2BD4202D34FF0010804E0211D04480B
:10158000006800F021FB4046BDE8F081AC0000207F
:10159000A800002070B5054600F03CFBA86B08B918
:1015A000012400E0002400F05FFB204670BD000035
:1015B00070B505460E460E480068C068C468201D18
:1015C00000F0DEFA94F8280000F0040028B132465A
:1015D0002946204600F0D6F805E094F8280000F0EF
:1015E000FE0084F828002046216A884770BD00006C
:1015F000A80000207FB57FE0019800287CDB039CD9
:10160000606908B9012000E0002010B9201D00F039
:10161000B7FA684600F0E2F8054601980A2869D250
:10162000DFE800F06805072E365806082F3700BFA0
:1016300000BF00BF94F8280040F0010084F82800A3
:101640000298A269811803462A462046FFF776FFD2
:10165000A8B194F8280000F0040038B10298A269FB
:1016600081182A46204600F08DF805E094F82800FD
:1016700000F0FE0084F828002046216A88473AE0FE
:1016800000BF94F8280000F0FE0084F8280032E043
:1016900000BF94F8280040F0010084F82800029868
:1016A000A061A06908B1012000E0002050B900BF8E
:1016B000502080F31188BFF34F8FBFF36F8F00BFAF
:1016C00000BFFEE7A06941192B462A462046FFF7D6
:1016D00035FF10E094F8280000F0020018B9204609
:1016E00000F0E0FA05E094F8280000F0FE0084F82D
:1016F000280000E000BF00BF002201A903480068E5
:1017000000F054FF00287FF477AF7FBDB0000020C9
:10171000F8B505460C4600F08BFD684600F05EF813
:101720000646009820BB44B9B54206D801F0F2F94C
:1017300031462846FFF73CFF1CE03CB10E480068EC
:10174000006808B9012000E000200446A91B2246D9
:101750000A48006800F06CFB01F0DCF950B94FF06A
:10176000805007490860BFF34F8FBFF36F8F01E0D0
:1017700001F0D0F9F8BD0000AC000020B00000205E
:1017800004ED00E070B504460D46164604E0A0697D
:1017900005442046216A8847A06941192B463246F4
:1017A0002046FFF7CBFE0028F1D170BD0948006844
:1017B000006808B9012000E0002020B14FF0FF30A0
:1017C0000549086005E003480068C06800680249F0
:1017D000086070476C0000209800002070B5044637
:1017E00001F024F8054607480068854204D200F05D
:1017F0000BF80120206001E0002020600148056016
:10180000284670BDB800002070B508E00D4800689B
:10181000C06804684FF0FF312046FFF7C9FE094851
:101820000068006808B9012000E000200028EDD021
:1018300004480568044800680249086002480560D9
:1018400070BD0000A8000020AC0000200E48006819
:10185000401C08B9012000E0002050B900BF502012
:1018600080F31188BFF34F8FBFF36F8F00BF00BFAE
:10187000FEE700BF502080F31188BFF34F8FBFF306
:101880006F8F00BF00BFFEE75C00002010B502466E
:101890000020114652B900BF502383F31188BFF3D3
:1018A0004F8FBFF36F8F00BF00BFFEE70B4C4B693C
:1018B000A34201D1012300E0002373B1084C8B6ADD
:1018C000A34201D1012300E0002333B98B6A0BB995
:1018D000012300E0002303B1012010BD782E012078
:1018E000502E012008B500BF6846FFF7E3FC044610
:1018F00020460099FFF70CFFFFF77CFEF4E770B578
:10190000044600F087F994F9455010E0606A08B980
:10191000012000E0002038B904F1240001F06AF849
:1019200018B100F063FB00E003E0681E45B2002D33
:10193000ECDC00BFFF2084F8450000F095F900F0D2
:1019400069F994F9445010E0206908B9012000E0D9
:10195000002048B904F1100001F04CF808B100F083
:1019600045FB681E45B200E001E0002DECDC00BF45
:10197000FF2084F8440000F077F970BD2DE9F047AE
:1019800005464FF0000900F053FC4248006808B9D2
:10199000FFF7A4FC75B105F00700C0F11008C8F10D
:1019A000FF30A84201D2012000E0002008B94544E0
:1019B00000E00025012000EBE570002853D0002D49
:1019C00051D03548006885424DD8344E30460468C1
:1019D00001E0264624686068A84202D220680028F8
:1019E000F7D12C48006884423DD0306800F10809E6
:1019F000206830606068401B102819D9671907F00B
:101A0000070008B9012000E0002050B900BF5020B5
:101A100080F31188BFF34F8FBFF36F8F00BF00BFFC
:101A2000FEE76068401B786065603846FFF752FD4E
:101A3000194960680968081A17490860084600686B
:101A400017490968884203D213480068144908609E
:101A5000606840F00040606000202060114800682D
:101A6000401C1049086001F055F809F0070008B95A
:101A7000012000E0002050B900BF502080F3118801
:101A8000BFF34F8FBFF36F8F00BF00BFFEE7484625
:101A9000BDE8F087480000204C00002040000020F6
:101AA0005000002054000020001F4FF0807303609E
:101AB000001F21F001030360001F054B0360143871
:101AC0000260001F6FF002030360203870470000BF
:101AD0004D18000810B588B0044601210846FEF7ED
:101AE0004DFF01211020FEF759FF0722092122484E
:101AF000FEF702FE07220A211F48FEF7FDFD4FF404
:101B0000C060069002208DF81C008DF81D0000209A
:101B10008DF81E0001208DF81F0006A91648FEF75B
:101B2000A3FD02940020ADF80C00ADF80E00ADF856
:101B30001000ADF814000C20ADF8120002A90F48F7
:101B4000FFF76CF901210D48FFF70CF9012240F273
:101B500025510A48FFF73CF925208DF804000320A1
:101B60008DF805008DF8060001208DF8070001A80A
:101B7000FEF7BEFE08B010BD00000240001001409C
:101B800001460A69D1E901309860D1E90103586042
:101B90005068884201D18868506000200861106850
:101BA000401E10601068704700F1080141604FF05E
:101BB000FF31816000F10801C16001610021016015
:101BC000704700210161704710B502460B685C1C2C
:101BD0000CB9106907E002F1080000E040684468B1
:101BE00024689C42FAD944684C604C68A1608860C3
:101BF00041600A611468641C146010BD42684A6048
:101C000093688B60936859609160086103685B1CFE
:101C10000360704700BF502080F31188BFF34F8FDF
:101C2000BFF36F8F00BF0E480068401C0C4908606E
:101C300008460068012812D10A480068C0B208B9F5
:101C4000012000E0002050B900BF502080F311882F
:101C5000BFF34F8FBFF36F8F00BF00BFFEE770472A
:101C60005C00002004ED00E00D48006850B900BFA2
:101C7000502080F31188BFF34F8FBFF36F8F00BFE9
:101C800000BFFEE706480068401E05490860084698
:101C9000006820B9002080F3118800BF00BF7047A2
:101CA0005C00002070B506463546002E3BD0083D4E
:101CB0002C466068C00F50B900BF502080F31188D7
:101CC000BFF34F8FBFF36F8F00BF00BFFEE72068E9
:101CD00008B9012000E0002050B900BF502080F377
:101CE0001188BFF34F8FBFF36F8F00BF00BFFEE7B8
:101CF0006068C00FB8B12068A8B9606820F00040E3
:101D0000606000F095FA084960680968084406496F
:101D100008602046FFF7DEFB04480068401C0349CA
:101D2000086000F0F7FE70BD4C0000205800002055
:101D300000204FF0E02108618861064800684FF4F8
:101D40007A71B0FBF1F0401E4FF0E02148610720AE
:101D5000086170470C00002070B5FEF7C1FA044618
:101D6000102C16D304F1E02090F8F05315480078B9
:101D7000854201DB012000E0002050B900BF502067
:101D800080F31188BFF34F8FBFF36F8F00BF00BF89
:101D9000FEE70D48006800F4E0600C4909688842DD
:101DA00001D8012000E0002050B900BF502080F38E
:101DB0001188BFF34F8FBFF36F8F00BF00BFFEE7E7
:101DC00070BD0000600000200CED00E06400002009
:101DD00030B502460B46002152B900BF502484F3AF
:101DE0001188BFF34F8FBFF36F8F00BF00BFFEE7B7
:101DF000BBB1002012E00D4C04EBC00464689442B7
:101E000003D10A4C04EBC0010AE031B9074C54F885
:101E1000304014B9054C04EBC001401C0828EAD33B
:101E200000BF09B10B604A6030BD0000842D012065
:101E30002DE9F04105460E4617462C46FFF7EAFE0F
:101E400094F94400401C10B9002084F8440094F92F
:101E50004500401C10B9002084F84500FFF704FF3E
:101E6000A06B28B93A46314604F1240000F0E0F8AE
:101E70002046FFF744FDBDE8F081000070B5044640
:101E80000025D4B11248006808B9012000E0002004
:101E900050B900BF502080F31188BFF34F8FBFF3BC
:101EA0006F8F00BF00BFFEE700F0C2F9002120469F
:101EB000FFF7B6F800F02EFE05463DB94FF0805012
:101EC00004490860BFF34F8FBFF36F8F70BD0000F0
:101ED000A400002004ED00E070B50546FFF79AFE6F
:101EE00015B93248006800E028460446201DFFF777
:101EF00047FE78B9E06A00EB80002D4951F82000D8
:101F000040B994F82C10012088402A49096881437F
:101F100028480160A06A18B104F11800FFF730FEEC
:101F200025480068401C2449086020480068844215
:101F300009D1211D2148FFF761FE21480068401C9E
:101F40001F49086006E01F480068401E1D490860E0
:101F5000FFF72CFCFFF788FE14480068844202D08B
:101F60002046FFF79EF918480068E8B10F4800685E
:101F7000844219D11548006808B9012000E000200A
:101F800050B900BF502080F31188BFF34F8FBFF3CB
:101F90006F8F00BF00BFFEE74FF080500C49086014
:101FA000BFF34F8FBFF36F8F70BD0000680000203C
:101FB000C42D01208000002094000020642E012008
:101FC000740000207800002084000020A40000207D
:101FD00004ED00E0034909680160034909684160B4
:101FE00070470000900000207C0000200120014983
:101FF000086070478C00002070B504460D4654B947
:1020000000BF502080F31188BFF34F8FBFF36F8F55
:1020100000BF00BFFEE70548016818312046FFF702
:10202000D3FD01212846FEF7FBFF70BD68000020AC
:1020300070B504460E46154654B900BF502080F3D3
:102040001188BFF34F8FBFF36F8F00BF00BFFEE754
:1020500060680F490968C8610D49826809680A62A9
:102060000B490968183182685160094909681831BB
:102070008160074909688C622168491C21600DB1A3
:102080004FF0FF3629463046FEF7CAFF70BD00000C
:10209000680000201CB51E4800210B468222CDE9B5
:1020A00000101CA11D4800F07DFB0446012C02D14C
:1020B00000F066FE0446012C15D100BF502080F3CD
:1020C0001188BFF34F8FBFF36F8F00BF4FF0FF300A
:1020D0001349086001201349086000201249086074
:1020E00000F0F4F810E0601C08B1012000E00020CE
:1020F00050B900BF502080F31188BFF34F8FBFF35A
:102100006F8F00BF00BFFEE7084800681CBD0000DD
:102110009C00002049444C45000000004D1300087D
:1021200098000020840000207C000020A0000020F7
:1021300070B50546FFF76EFD15B93548006800E03B
:1021400028460446201DFFF71BFD78B9E06A00EB26
:102150008000304951F8200040B994F82C1001203B
:1021600088402D49096881432B480160A06A18B155
:1021700004F11800FFF704FD211D2848FFF73EFD7C
:10218000002009E004F15401095C012903D1002277
:1021900004F154010A54401C0128F3DBFFF764FDED
:1021A0001F48006828B1FFF735FDFFF7FFFAFFF77A
:1021B0005BFD17480068844229D119480068D0B1F6
:1021C0001848006808B9012000E0002050B900BF9D
:1021D000502080F31188BFF34F8FBFF36F8F00BF84
:1021E00000BFFEE74FF080500F490860BFF34F8FEC
:1021F000BFF36F8F0BE0094800680C4909688842FB
:1022000003D100200249086001E000F019F870BD18
:1022100068000020C42D012080000020782E0120BD
:1022200084000020A400002004ED00E078000020DD
:1022300002480068401C014908607047A400002063
:102240001D48006818B101201C49086032E00020D8
:102250001A4908601A480068B0FA80F0C0F11F01FE
:1022600001EB8100174A52F8200008B1012000E07C
:10227000002050B900BF502080F31188BFF34F8F6A
:10228000BFF36F8F00BF00BFFEE701EB81020D4B74
:1022900003EB820042685268426000F10802436822
:1022A000934202D14268526842604268D268064B4B
:1022B0001A6000BF70470000A40000208C000020BE
:1022C00080000020C42D0120680000201CB5524869
:1022D00000685249884201D0012000E0002050B936
:1022E00000BF502080F31188BFF34F8FBFF36F8F73
:1022F00000BF00BFFEE7484800684849491E8842C1
:1023000001D0012000E0002050B900BF502080F330
:102310001188BFF34F8FBFF36F8F00BF00BFFEE781
:102320003F49084600780190FF200A461070084691
:10233000007800909DF8000000F0F0009DF800206B
:10234000904201D1012000E0002050B900BF502090
:1023500080F31188BFF34F8FBFF36F8F00BF00BFB3
:10236000FEE79DF8000000F050002E4A1070072094
:102370002D4A106009E02C480068401E2A4A10606F
:102380009DF800004006000E00909DF8000000F04F
:1023900080008028EFD024480068C0F1070004289E
:1023A00001D1012000E0002050B900BF502080F38F
:1023B0001188BFF34F8FBFF36F8F00BF00BFFEE7E1
:1023C000194800680002184A10601046008800F49E
:1023D000E0601060124A019810700F4820300068C9
:1023E00040F470000C49203108600846006840F055
:1023F00070400860FFF79CFC00200C490860FDF766
:1024000037FF0B48006840F0404009490860FDF77D
:102410001BFF00201CBD000000ED00E071C20F4159
:1024200000E400E060000020640000205C00002068
:1024300034EF00E010B500BF502080F31188BFF3E7
:102440004F8FBFF36F8F00BF00F0F6F918B14FF058
:1024500080500449086000BF002080F3118800BF4D
:1024600010BD000004ED00E02DE9F84305460E46DE
:1024700017460024E5B1601EB0FBF5F0B04217D35B
:1024800005FB06F010F1510F12D805FB06F808F114
:102490005000FFF773FA0446B4B1A14609F15009A0
:1024A0003B464A46314628460094FEF763FF0BE060
:1024B00054B900BF502080F31188BFF34F8FBFF392
:1024C0006F8F00BF00BFFEE72046BDE8F883000025
:1024D0002DE9F04105460E4601272C4654B900BFB0
:1024E000502080F31188BFF34F8FBFF36F8F00BF71
:1024F00000BFFEE7002C42D0E06B00283FD04FF039
:10250000FF31E06BB1FBF0F0216C884237D3FFF76D
:1025100081FBD4E90F12206801FB0200A0600020BB
:10252000A06320686060E06B401E226C216800FBA5
:102530000211E160FF2084F8440084F845009EB950
:10254000206908B9012000E00020A8B904F11000BA
:1025500000F050FA80B14FF0805013490860BFF38B
:102560004F8FBFF36F8F07E004F11000FFF71CFBE4
:1025700004F12400FFF718FBFFF776FB00E00027CB
:102580000FB1012000E0002050B900BF502080F3BF
:102590001188BFF34F8FBFF36F8F00BF00BFFEE7FF
:1025A0003846BDE8F081000004ED00E02DE9F74178
:1025B00083B005460E464FF000082C4654B900BFC4
:1025C000502080F31188BFF34F8FBFF36F8F00BF90
:1025D00000BFFEE70EB9206C08B9012000E0002022
:1025E00050B900BF502080F31188BFF34F8FBFF365
:1025F0006F8F00BF00BFFEE700F008F908B905982B
:1026000008B9012000E0002050B900BF502080F33D
:102610001188BFF34F8FBFF36F8F00BF00BFFEE77E
:1026200000BFFFF7F7FAA76BF7B131462046FEF778
:1026300023FE781EA063206908B9012000E0002075
:1026400060B904F1100000F0D5F938B14FF08050B6
:102650002F490860BFF34F8FBFF36F8FFFF704FB65
:10266000012006B0BDE8F081059818B9FFF7FCFA23
:102670000020F6E7B8F1000F04D101A8FFF7AAFC8B
:102680004FF00108FFF7F0FAFFF7D2FDFFF7C2FAAB
:1026900094F94400401C10B9002084F8440094F9D7
:1026A0004500401C10B9002084F84500FFF7DCFA13
:1026B00005A901A800F02EF8F0B92046FEF76AFF40
:1026C000A0B104F124000599FFF796FC2046FFF71E
:1026D00016F900F01FFA0028A3D14FF080500C49E2
:1026E0000860BFF34F8FBFF36F8F9AE72046FFF765
:1026F00006F900F00FFA94E72046FFF700F900F022
:1027000009FA2046FEF746FF00288AD00020A8E7F5
:1027100004ED00E070B505460C4655B900BF5020E9
:1027200080F31188BFF34F8FBFF36F8F00BF00BFDF
:10273000FEE754B900BF502080F31188BFF34F8FDC
:10274000BFF36F8F00BF00BFFEE7FFF763FA1348C8
:1027500002686868131A2068401C08B9002619E04E
:102760000F4928680968884206D06868904203D8F3
:102770000126002020600DE02068984207D92068DB
:10278000C01A20602846FFF725FC002602E0002042
:1027900020600126FFF768FA304670BD7C000020FB
:1027A000900000202DE9FF4F85B0804689461746EE
:1027B000DDE912ABB800FFF7E1F8064676B1582024
:1027C000FFF7DCF804462CB158212046FDF71CFE2B
:1027D000266304E03046FFF765FA00E000247CB190
:1027E0000020CDE900ABCDE902403A4649464046DB
:1027F000089BFEF7D4FD2046FEF772FC012501E0A0
:102800004FF0FF35284609B0BDE8F08F054909684B
:1028100009B9012005E00449096809B9022000E06E
:102820000020704784000020A400002001490868AF
:10283000704700007C0000202DE9F0414FF00008B7
:102840006148006800287DD160480068451C5F48E9
:10285000056015BB5E480068006808B9012000E00B
:10286000002050B900BF502080F31188BFF34F8F74
:10287000BFF36F8F00BF00BFFEE75548076855489C
:102880000068534908605348076053480068401C7B
:1028900051490860FEF78AFF00BF50480068854232
:1028A00077D300BF4A480068006808B9012000E0FB
:1028B000002020B14FF0FF304849086068E04448EC
:1028C0000068C068C4686668B54202D243480660C2
:1028D0005EE06069D4E902128A60D4E902214A60AC
:1028E000211D42688A4201D1E16841600022626193
:1028F0000168491E0160A06A98B1A06AD4E9071274
:102900008A60D4E907214A6004F1180142688A42CA
:1029100001D1216A41600022A2620168491E016062
:1029200000BF94F82C10012088402D490968084305
:102930002B490860E16A01EB81012A4A02EB81011F
:10294000486800E037E0A0608268E260211D82688C
:1029500051608160E16A01EB8101224A02EB810250
:102960006261E16A01EB81011E4A52F82110491CA3
:10297000E26A02EB82021B4B43F822101A49E06A1A
:102980000968C96A88428DD94FF001088AE700E0DA
:1029900000BF15480068C06A00EB8000114951F87B
:1029A0002000012801D94FF001081048006808B143
:1029B0004FF0010804E00E480068401C0C49086014
:1029C0004046BDE8F0810000A40000207C0000200B
:1029D0006C00002070000020900000209800002073
:1029E00080000020C42D0120680000208C00002001
:1029F0008800002070B50346D868C16851B900BF8F
:102A0000502080F31188BFF34F8FBFF36F8F00BF4B
:102A100000BFFEE7886AD1E90745A560D1E9075400
:102A2000656001F118044568A54201D10C6A446053
:102A300000258D620468641E046030480068002828
:102A40003DD14869D1E90245A560D1E902546560EC
:102A50000C1D4568A54201D1CC68446000254D613C
:102A60000468641E046091F82C400120A040244CAE
:102A700024682043224C2060CC6A04EB8404214D5E
:102A800005EB8404606888608568CD600C1D8568EE
:102A90006C608460CC6A04EB84041A4D05EB8405F9
:102AA0004D61CC6A04EB8404164D55F82440641C37
:102AB000CD6A05EB8505134E46F8254010E0124C13
:102AC0006068C86185680D6201F1180485686C60F2
:102AD00084600D4D8D622C462468641C2C6000BF00
:102AE0000A4CC86A2468E46AA04204D90122012081
:102AF000074C206000E00022104670BDA4000020BA
:102B000080000020C42D0120502E012068000020EC
:102B10008C00002070B5002400265348006850B98E
:102B200000BF502080F31188BFF34F8FBFF36F8F2A
:102B300000BF00BFFEE7FFF76DF84B480068401E7E
:102B4000494908600846006800287DD14748006868
:102B5000002879D05BE04648C068C468A06AD4E920
:102B600007128A60D4E907214A6004F1180142681B
:102B70008A4201D1216A41600022A2620168491E95
:102B800001606069D4E902128A60D4E902214A60D6
:102B9000211D42688A4201D1E168416000226261E0
:102BA0000168491E016094F82C10012088403149C9
:102BB000096808432F490860E16A01EB81012E4A48
:102BC00002EB81014868A0608268E260211D826892
:102BD00051608160E16A01EB8101274A02EB8102C9
:102BE0006261E16A01EB8101234A52F82110491C1C
:102BF000E26A02EB8202204B43F822101F49E06A8E
:102C00000968C96A884202D301201D490860184832
:102C1000006808B9012000E0002000289BD00CB11A
:102C2000FEF7C4FD1748056865B100BFFFF704FE55
:102C300010B10120124908606D1E002DF6D1002050
:102C4000104908600E4800E009E0006838B101262C
:102C500030070D490860BFF34F8FBFF36F8FFFF749
:102C600003F8304670BD0000A4000020780000206A
:102C7000502E012080000020C42D0120680000207B
:102C80008C0000208800002004ED00E02DE9F041D8
:102C900006460027344656B900BF502080F31188FD
:102CA000BFF34F8FBFF36F8F00BF00BFFEE7FFF78B
:102CB00053F800BF5021EFF3118081F31188BFF367
:102CC0004F8FBFF36F8F00BF05462046FEF7DEFD36
:102CD000002841D024480068C0BB2449E06A096844
:102CE000C96A884203D30127012021490860201DB9
:102CF000FEF746FF94F82C10012088401D49096812
:102D000008431C490860E16A01EB81011A4A02EBA1
:102D100081014868A0608268E260211D826851607C
:102D20008160E16A01EB8101134A02EB8102626179
:102D3000E16A01EB8101104A52F82110491CE26A54
:102D400002EB82020C4B43F8221005E0FFE704F18E
:102D500018010A48FEF752FF00BF85F3118800BF33
:102D60003846BDE8F0810000A40000206800002083
:102D70008C00002080000020C42D0120502E012056
:102D80001CB50024FEF722FA0E48006858B10E4820
:102D9000022100234FF48272CDE900100BA10D48EF
:102DA000FFF700FD044654B900BF502080F311889E
:102DB000BFF34F8FBFF36F8F00BF00BFFEE720460A
:102DC0001CBD0000B0000020B4000020546D722033
:102DD00053766300E51800084FF04070E1EE100AEA
:102DE00070470000042E000800000020BC00000016
:102DF000C4010008C02E0008BC0000205C340100A3
:102E0000E0010008000000000000000000000000D9
:102E1000007A030A00000000000000000102030421
:102E20000607080901000000000000000000000083
:102E30000000000000000102030401020304060771
:102E40000809000000000000000000000000000071
:102E50000000000000000000000000000000000072
:102E6000AAAAAAAA000000000000000000000000BA
:102E70000000000000000000000000000000000052
:102E80000000000000000000000000000000000042
:102E90000000000000000000000000000000000032
:102EA000000000000400000000000000000000001E
:102EB0000000000000000000000000000000000012
:040000050800018965
:00000001FF
